{
  "contractName": "ManagerField",
  "abi": [
    {
      "inputs": [],
      "stateMutability": "nonpayable",
      "type": "constructor"
    },
    {
      "anonymous": false,
      "inputs": [
        {
          "indexed": true,
          "internalType": "address",
          "name": "account",
          "type": "address"
        }
      ],
      "name": "AddedManagerField",
      "type": "event"
    },
    {
      "anonymous": false,
      "inputs": [
        {
          "indexed": true,
          "internalType": "address",
          "name": "account",
          "type": "address"
        }
      ],
      "name": "RemovedManagerField",
      "type": "event"
    },
    {
      "inputs": [
        {
          "internalType": "address",
          "name": "account",
          "type": "address"
        }
      ],
      "name": "isManagerField",
      "outputs": [
        {
          "internalType": "bool",
          "name": "",
          "type": "bool"
        }
      ],
      "stateMutability": "view",
      "type": "function"
    }
  ],
  "bytecode": "0x608060405234801561001057600080fd5b506100203361002560201b60201c565b610464565b61003d81600061008360201b61007d1790919060201c565b8073ffffffffffffffffffffffffffffffffffffffff167fb356241f4c9415a59716f1506d9a7d7f97eca0b3b99b43f050a73965017093e560405160405180910390a250565b600073ffffffffffffffffffffffffffffffffffffffff168173ffffffffffffffffffffffffffffffffffffffff1614156100f3576040517f08c379a00000000000000000000000000000000000000000000000000000000081526004016100ea90610346565b60405180910390fd5b61010382826101fb60201b60201c565b15610143576040517f08c379a000000000000000000000000000000000000000000000000000000000815260040161013a906103d8565b60405180910390fd5b60018260000160008373ffffffffffffffffffffffffffffffffffffffff1673ffffffffffffffffffffffffffffffffffffffff16815260200190815260200160002060006101000a81548160ff02191690831515021790555060018260010160008373ffffffffffffffffffffffffffffffffffffffff1673ffffffffffffffffffffffffffffffffffffffff16815260200190815260200160002060006101000a81548160ff0219169083151502179055505050565b60008073ffffffffffffffffffffffffffffffffffffffff168273ffffffffffffffffffffffffffffffffffffffff16141561026c576040517f08c379a000000000000000000000000000000000000000000000000000000000815260040161026390610444565b60405180910390fd5b8260000160008373ffffffffffffffffffffffffffffffffffffffff1673ffffffffffffffffffffffffffffffffffffffff16815260200190815260200160002060009054906101000a900460ff16905092915050565b600082825260208201905092915050565b7f4572726f7220696e20526f6c65732e736f6c2c2061646428292066697273742060008201527f726571756972656d656e74000000000000000000000000000000000000000000602082015250565b6000610330602b836102c3565b915061033b826102d4565b604082019050919050565b6000602082019050818103600083015261035f81610323565b9050919050565b7f4572726f7220696e20526f6c65732e736f6c2c206164642829207365636f6e6460008201527f20726571756972656d656e740000000000000000000000000000000000000000602082015250565b60006103c2602c836102c3565b91506103cd82610366565b604082019050919050565b600060208201905081810360008301526103f1816103b5565b9050919050565b7f4572726f7220696e20526f6c65732e736f6c2c206f776e732829000000000000600082015250565b600061042e601a836102c3565b9150610439826103f8565b602082019050919050565b6000602082019050818103600083015261045d81610421565b9050919050565b610554806104736000396000f3fe608060405234801561001057600080fd5b506004361061002b5760003560e01c806305334b3414610030575b600080fd5b61004a6004803603810190610045919061031a565b610060565b6040516100579190610362565b60405180910390f35b60006100768260006101ef90919063ffffffff16565b9050919050565b600073ffffffffffffffffffffffffffffffffffffffff168173ffffffffffffffffffffffffffffffffffffffff1614156100ed576040517f08c379a00000000000000000000000000000000000000000000000000000000081526004016100e490610400565b60405180910390fd5b6100f782826101ef565b15610137576040517f08c379a000000000000000000000000000000000000000000000000000000000815260040161012e90610492565b60405180910390fd5b60018260000160008373ffffffffffffffffffffffffffffffffffffffff1673ffffffffffffffffffffffffffffffffffffffff16815260200190815260200160002060006101000a81548160ff02191690831515021790555060018260010160008373ffffffffffffffffffffffffffffffffffffffff1673ffffffffffffffffffffffffffffffffffffffff16815260200190815260200160002060006101000a81548160ff0219169083151502179055505050565b60008073ffffffffffffffffffffffffffffffffffffffff168273ffffffffffffffffffffffffffffffffffffffff161415610260576040517f08c379a0000000000000000000000000000000000000000000000000000000008152600401610257906104fe565b60405180910390fd5b8260000160008373ffffffffffffffffffffffffffffffffffffffff1673ffffffffffffffffffffffffffffffffffffffff16815260200190815260200160002060009054906101000a900460ff16905092915050565b600080fd5b600073ffffffffffffffffffffffffffffffffffffffff82169050919050565b60006102e7826102bc565b9050919050565b6102f7816102dc565b811461030257600080fd5b50565b600081359050610314816102ee565b92915050565b6000602082840312156103305761032f6102b7565b5b600061033e84828501610305565b91505092915050565b60008115159050919050565b61035c81610347565b82525050565b60006020820190506103776000830184610353565b92915050565b600082825260208201905092915050565b7f4572726f7220696e20526f6c65732e736f6c2c2061646428292066697273742060008201527f726571756972656d656e74000000000000000000000000000000000000000000602082015250565b60006103ea602b8361037d565b91506103f58261038e565b604082019050919050565b60006020820190508181036000830152610419816103dd565b9050919050565b7f4572726f7220696e20526f6c65732e736f6c2c206164642829207365636f6e6460008201527f20726571756972656d656e740000000000000000000000000000000000000000602082015250565b600061047c602c8361037d565b915061048782610420565b604082019050919050565b600060208201905081810360008301526104ab8161046f565b9050919050565b7f4572726f7220696e20526f6c65732e736f6c2c206f776e732829000000000000600082015250565b60006104e8601a8361037d565b91506104f3826104b2565b602082019050919050565b60006020820190508181036000830152610517816104db565b905091905056fea26469706673582212207a4ca902bf7481ba3974269a4ce716c8e6a416d0f816b07d523e9e84212d9b9a64736f6c634300080b0033",
  "immutableReferences": {},
  "source": "// SPDX-License-Identifier: MIT\r\npragma solidity ^0.8.0;\r\nimport \"./Roles.sol\";\r\n\r\ncontract ManagerField {\r\n    using Roles for Roles.Role;\r\n\r\n    //Event for adding and removing ManagerField\r\n    event AddedManagerField(address indexed account);\r\n    event RemovedManagerField(address indexed account);\r\n\r\n    //This struct inherits the struct Role from the \"Roles\" library\r\n    Roles.Role private fManagers;\r\n\r\n    constructor() {\r\n        addManagerFieldInternal(msg.sender);\r\n    }\r\n\r\n    //Check this role\r\n    function isManagerField(address account) public view returns (bool) {\r\n        return fManagers.owns(account);\r\n    }\r\n\r\n    // Define a modifier that checks to see if msg.sender has the appropriate role\r\n    modifier onlyManagerField() {\r\n        require(isManagerField(msg.sender), \"Error: Only field manager is authorised to make this action\");\r\n        _;\r\n    }\r\n\r\n  \r\n    function addManagerFieldInternal(address account) internal {\r\n        fManagers.add(account);\r\n        emit AddedManagerField(account);\r\n    }\r\n\r\n  \r\n    function removeManagerFieldInternal(address account) internal {\r\n        fManagers.remove(account);\r\n        emit RemovedManagerField(account);\r\n    }\r\n\r\n   \r\n    // function addManagerField(address account) public onlyManagerField {\r\n    //     addManagerFieldInternal(account);\r\n    // }\r\n\r\n  \r\n    // function removeManagerField() public {\r\n    //     removeManagerFieldInternal(msg.sender);\r\n    // }\r\n}",
  "sourcePath": "C:\\Users\\teode\\Desktop\\21.22project\\Documents\\Code\\firstProject\\contracts\\AccessControl\\ManagerField.sol",
  "compiler": {
    "name": "solc",
    "version": "0.8.11+commit.d7f03943.Emscripten.clang"
  },
  "schemaVersion": "3.4.4",
  "updatedAt": "2022-04-28T18:15:13.929Z",
  "devdoc": {
    "kind": "dev",
    "methods": {},
    "version": 1
  },
  "userdoc": {
    "kind": "user",
    "methods": {},
    "version": 1
  }
}