{
  "contractName": "Operator",
  "abi": [
    {
      "inputs": [],
      "stateMutability": "nonpayable",
      "type": "constructor"
    },
    {
      "anonymous": false,
      "inputs": [
        {
          "indexed": true,
          "internalType": "address",
          "name": "account",
          "type": "address"
        }
      ],
      "name": "AddedOperator",
      "type": "event"
    },
    {
      "anonymous": false,
      "inputs": [
        {
          "indexed": true,
          "internalType": "address",
          "name": "account",
          "type": "address"
        }
      ],
      "name": "MadeAvailableOperator",
      "type": "event"
    },
    {
      "anonymous": false,
      "inputs": [
        {
          "indexed": true,
          "internalType": "address",
          "name": "account",
          "type": "address"
        }
      ],
      "name": "MadeUnavailableOperator",
      "type": "event"
    },
    {
      "anonymous": false,
      "inputs": [
        {
          "indexed": true,
          "internalType": "address",
          "name": "account",
          "type": "address"
        }
      ],
      "name": "RemovedOperator",
      "type": "event"
    },
    {
      "inputs": [
        {
          "internalType": "address",
          "name": "account",
          "type": "address"
        }
      ],
      "name": "isOperator",
      "outputs": [
        {
          "internalType": "bool",
          "name": "",
          "type": "bool"
        }
      ],
      "stateMutability": "view",
      "type": "function"
    },
    {
      "inputs": [
        {
          "internalType": "address",
          "name": "account",
          "type": "address"
        }
      ],
      "name": "isAvailableOperator",
      "outputs": [
        {
          "internalType": "bool",
          "name": "",
          "type": "bool"
        }
      ],
      "stateMutability": "view",
      "type": "function"
    },
    {
      "inputs": [
        {
          "internalType": "address",
          "name": "account",
          "type": "address"
        }
      ],
      "name": "makeUnavailableOperator",
      "outputs": [],
      "stateMutability": "nonpayable",
      "type": "function"
    },
    {
      "inputs": [
        {
          "internalType": "address",
          "name": "account",
          "type": "address"
        }
      ],
      "name": "makeAvailableOperator",
      "outputs": [],
      "stateMutability": "nonpayable",
      "type": "function"
    }
  ],
  "bytecode": "0x60806040523480156200001157600080fd5b5062000023336200002960201b60201c565b62000488565b620000448160006200008a60201b620002671790919060201c565b8073ffffffffffffffffffffffffffffffffffffffff167f62cb02f3de5017db2b7d0bffac1845be0b5034dc8dbde6e56dd561e2b22446c260405160405180910390a250565b600073ffffffffffffffffffffffffffffffffffffffff168173ffffffffffffffffffffffffffffffffffffffff161415620000fd576040517f08c379a0000000000000000000000000000000000000000000000000000000008152600401620000f4906200035c565b60405180910390fd5b6200010f82826200020a60201b60201c565b1562000152576040517f08c379a00000000000000000000000000000000000000000000000000000000081526004016200014990620003f4565b60405180910390fd5b60018260000160008373ffffffffffffffffffffffffffffffffffffffff1673ffffffffffffffffffffffffffffffffffffffff16815260200190815260200160002060006101000a81548160ff02191690831515021790555060018260010160008373ffffffffffffffffffffffffffffffffffffffff1673ffffffffffffffffffffffffffffffffffffffff16815260200190815260200160002060006101000a81548160ff0219169083151502179055505050565b60008073ffffffffffffffffffffffffffffffffffffffff168273ffffffffffffffffffffffffffffffffffffffff1614156200027e576040517f08c379a0000000000000000000000000000000000000000000000000000000008152600401620002759062000466565b60405180910390fd5b8260000160008373ffffffffffffffffffffffffffffffffffffffff1673ffffffffffffffffffffffffffffffffffffffff16815260200190815260200160002060009054906101000a900460ff16905092915050565b600082825260208201905092915050565b7f4572726f7220696e20526f6c65732e736f6c2c2061646428292066697273742060008201527f726571756972656d656e74000000000000000000000000000000000000000000602082015250565b600062000344602b83620002d5565b91506200035182620002e6565b604082019050919050565b60006020820190508181036000830152620003778162000335565b9050919050565b7f4572726f7220696e20526f6c65732e736f6c2c206164642829207365636f6e6460008201527f20726571756972656d656e740000000000000000000000000000000000000000602082015250565b6000620003dc602c83620002d5565b9150620003e9826200037e565b604082019050919050565b600060208201905081810360008301526200040f81620003cd565b9050919050565b7f4572726f7220696e20526f6c65732e736f6c2c206f776e732829000000000000600082015250565b60006200044e601a83620002d5565b91506200045b8262000416565b602082019050919050565b6000602082019050818103600083015262000481816200043f565b9050919050565b610b7880620004986000396000f3fe608060405234801561001057600080fd5b506004361061004c5760003560e01c80635268ea6d146100515780636d70f7ae146100815780638cf131fb146100b1578063a12a4be2146100cd575b600080fd5b61006b60048036038101906100669190610768565b6100e9565b60405161007891906107b0565b60405180910390f35b61009b60048036038101906100969190610768565b610106565b6040516100a891906107b0565b60405180910390f35b6100cb60048036038101906100c69190610768565b610123565b005b6100e760048036038101906100e29190610768565b6101c5565b005b60006100ff8260006103d990919063ffffffff16565b9050919050565b600061011c8260006104a190919063ffffffff16565b9050919050565b61012c33610106565b61016b576040517f08c379a00000000000000000000000000000000000000000000000000000000081526004016101629061084e565b60405180910390fd5b61017f81600061056990919063ffffffff16565b8073ffffffffffffffffffffffffffffffffffffffff167f1a6b4f47c444adaee6c1bf91c5854819261fd69eb23681a222aabffb3b2bedd160405160405180910390a250565b6101ce33610106565b61020d576040517f08c379a00000000000000000000000000000000000000000000000000000000081526004016102049061084e565b60405180910390fd5b61022181600061063790919063ffffffff16565b8073ffffffffffffffffffffffffffffffffffffffff167fe6519cb797d40f13112e034ddabb3d2920df5ea81735cf37b11b1d4cfed66c3860405160405180910390a250565b600073ffffffffffffffffffffffffffffffffffffffff168173ffffffffffffffffffffffffffffffffffffffff1614156102d7576040517f08c379a00000000000000000000000000000000000000000000000000000000081526004016102ce906108e0565b60405180910390fd5b6102e182826104a1565b15610321576040517f08c379a000000000000000000000000000000000000000000000000000000000815260040161031890610972565b60405180910390fd5b60018260000160008373ffffffffffffffffffffffffffffffffffffffff1673ffffffffffffffffffffffffffffffffffffffff16815260200190815260200160002060006101000a81548160ff02191690831515021790555060018260010160008373ffffffffffffffffffffffffffffffffffffffff1673ffffffffffffffffffffffffffffffffffffffff16815260200190815260200160002060006101000a81548160ff0219169083151502179055505050565b60008073ffffffffffffffffffffffffffffffffffffffff168273ffffffffffffffffffffffffffffffffffffffff16141561044a576040517f08c379a0000000000000000000000000000000000000000000000000000000008152600401610441906109de565b60405180910390fd5b8260010160008373ffffffffffffffffffffffffffffffffffffffff1673ffffffffffffffffffffffffffffffffffffffff16815260200190815260200160002060009054906101000a900460ff16905092915050565b60008073ffffffffffffffffffffffffffffffffffffffff168273ffffffffffffffffffffffffffffffffffffffff161415610512576040517f08c379a000000000000000000000000000000000000000000000000000000000815260040161050990610a4a565b60405180910390fd5b8260000160008373ffffffffffffffffffffffffffffffffffffffff1673ffffffffffffffffffffffffffffffffffffffff16815260200190815260200160002060009054906101000a900460ff16905092915050565b600073ffffffffffffffffffffffffffffffffffffffff168173ffffffffffffffffffffffffffffffffffffffff1614156105d9576040517f08c379a00000000000000000000000000000000000000000000000000000000081526004016105d090610ab6565b60405180910390fd5b60018260010160008373ffffffffffffffffffffffffffffffffffffffff1673ffffffffffffffffffffffffffffffffffffffff16815260200190815260200160002060006101000a81548160ff0219169083151502179055505050565b600073ffffffffffffffffffffffffffffffffffffffff168173ffffffffffffffffffffffffffffffffffffffff1614156106a7576040517f08c379a000000000000000000000000000000000000000000000000000000000815260040161069e90610b22565b60405180910390fd5b60008260010160008373ffffffffffffffffffffffffffffffffffffffff1673ffffffffffffffffffffffffffffffffffffffff16815260200190815260200160002060006101000a81548160ff0219169083151502179055505050565b600080fd5b600073ffffffffffffffffffffffffffffffffffffffff82169050919050565b60006107358261070a565b9050919050565b6107458161072a565b811461075057600080fd5b50565b6000813590506107628161073c565b92915050565b60006020828403121561077e5761077d610705565b5b600061078c84828501610753565b91505092915050565b60008115159050919050565b6107aa81610795565b82525050565b60006020820190506107c560008301846107a1565b92915050565b600082825260208201905092915050565b7f4572726f723a204f6e6c79206f70657261746f7220697320617574686f72697360008201527f656420746f206d616b65207468697320616374696f6e00000000000000000000602082015250565b60006108386036836107cb565b9150610843826107dc565b604082019050919050565b600060208201905081810360008301526108678161082b565b9050919050565b7f4572726f7220696e20526f6c65732e736f6c2c2061646428292066697273742060008201527f726571756972656d656e74000000000000000000000000000000000000000000602082015250565b60006108ca602b836107cb565b91506108d58261086e565b604082019050919050565b600060208201905081810360008301526108f9816108bd565b9050919050565b7f4572726f7220696e20526f6c65732e736f6c2c206164642829207365636f6e6460008201527f20726571756972656d656e740000000000000000000000000000000000000000602082015250565b600061095c602c836107cb565b915061096782610900565b604082019050919050565b6000602082019050818103600083015261098b8161094f565b9050919050565b7f4572726f7220696e20526f6c65732e736f6c2c20697346726565282900000000600082015250565b60006109c8601c836107cb565b91506109d382610992565b602082019050919050565b600060208201905081810360008301526109f7816109bb565b9050919050565b7f4572726f7220696e20526f6c65732e736f6c2c206f776e732829000000000000600082015250565b6000610a34601a836107cb565b9150610a3f826109fe565b602082019050919050565b60006020820190508181036000830152610a6381610a27565b9050919050565b7f4572726f7220696e20526f6c65732e736f6c2c206d616b654672656528290000600082015250565b6000610aa0601e836107cb565b9150610aab82610a6a565b602082019050919050565b60006020820190508181036000830152610acf81610a93565b9050919050565b7f4572726f7220696e20526f6c65732e736f6c2c206d616b6554616b656e282900600082015250565b6000610b0c601f836107cb565b9150610b1782610ad6565b602082019050919050565b60006020820190508181036000830152610b3b81610aff565b905091905056fea26469706673582212208793bba50db528ed5deeab66a29d12c8b3a58fa55f9f1a96d8042e76e01181c264736f6c634300080b0033",
  "immutableReferences": {},
  "source": "// SPDX-License-Identifier: MIT\r\npragma solidity ^0.8.0;\r\nimport \"./Roles.sol\";\r\n\r\ncontract Operator {\r\n    using Roles for Roles.Role;\r\n\r\n    //Event for adding and removing operator\r\n    event AddedOperator(address indexed account);\r\n    event RemovedOperator(address indexed account);\r\n\r\n    event MadeAvailableOperator(address indexed account);\r\n    event MadeUnavailableOperator(address indexed account);\r\n  \r\n\r\n\r\n    //This struct inherits the struct Role from the \"Roles\" library\r\n    Roles.Role private operators;\r\n\r\n    constructor() {\r\n        addOperatorInternal(msg.sender);\r\n    }\r\n\r\n    //Check this role\r\n    function isOperator(address account) public view returns (bool) {\r\n        return operators.owns(account);\r\n    }\r\n\r\n    // Define a modifier that checks to see if msg.sender has the appropriate role\r\n    modifier onlyOperator() {\r\n        require(isOperator(msg.sender), \"Error: Only operator is authorised to make this action\");\r\n        _;\r\n    }\r\n\r\n    function isAvailableOperator(address account) public view returns (bool) {\r\n        return operators.isFree(account);\r\n    }\r\n    \r\n    function makeUnavailableOperator(address account) public onlyOperator{\r\n        operators.makeTaken(account);\r\n\r\n        emit MadeUnavailableOperator(account);\r\n    }\r\n\r\n    function makeAvailableOperator(address account) public onlyOperator{\r\n        operators.makeFree(account);\r\n\r\n        emit MadeAvailableOperator(account);\r\n    }\r\n\r\n    function addOperatorInternal(address account) internal {\r\n        operators.add(account);\r\n        emit AddedOperator(account);\r\n    }\r\n\r\n  \r\n    function removeOperatorInternal(address account) internal {\r\n        operators.remove(account);\r\n        emit RemovedOperator(account);\r\n    }\r\n\r\n   \r\n    // function addOperator(address account) public onlyOperator {\r\n    //     addOperatorInternal(account);\r\n    // }\r\n\r\n  \r\n    // function removeOperator() public {\r\n    //     removeOperatorInternal(msg.sender);\r\n    // }\r\n}",
  "sourcePath": "C:\\Users\\teode\\Desktop\\21.22project\\Documents\\Code\\firstProject\\contracts\\AccessControl\\Operator.sol",
  "compiler": {
    "name": "solc",
    "version": "0.8.11+commit.d7f03943.Emscripten.clang"
  },
  "schemaVersion": "3.4.4",
  "updatedAt": "2022-04-28T18:15:13.934Z",
  "devdoc": {
    "kind": "dev",
    "methods": {},
    "version": 1
  },
  "userdoc": {
    "kind": "user",
    "methods": {},
    "version": 1
  }
}