{
  "contractName": "Ownership",
  "abi": [
    {
      "inputs": [],
      "stateMutability": "nonpayable",
      "type": "constructor"
    },
    {
      "anonymous": false,
      "inputs": [
        {
          "indexed": true,
          "internalType": "address",
          "name": "old",
          "type": "address"
        },
        {
          "indexed": true,
          "internalType": "address",
          "name": "newOwner",
          "type": "address"
        }
      ],
      "name": "TransferOwnership",
      "type": "event"
    },
    {
      "inputs": [],
      "name": "ownerLookup",
      "outputs": [
        {
          "internalType": "address",
          "name": "",
          "type": "address"
        }
      ],
      "stateMutability": "view",
      "type": "function"
    },
    {
      "inputs": [],
      "name": "isOwner",
      "outputs": [
        {
          "internalType": "bool",
          "name": "",
          "type": "bool"
        }
      ],
      "stateMutability": "view",
      "type": "function"
    },
    {
      "inputs": [],
      "name": "removeOwnership",
      "outputs": [],
      "stateMutability": "nonpayable",
      "type": "function"
    },
    {
      "inputs": [
        {
          "internalType": "address",
          "name": "newOwner",
          "type": "address"
        }
      ],
      "name": "transferOwnership",
      "outputs": [],
      "stateMutability": "nonpayable",
      "type": "function"
    }
  ],
  "bytecode": "0x608060405234801561001057600080fd5b50336000806101000a81548173ffffffffffffffffffffffffffffffffffffffff021916908373ffffffffffffffffffffffffffffffffffffffff16021790555060008054906101000a900473ffffffffffffffffffffffffffffffffffffffff1673ffffffffffffffffffffffffffffffffffffffff16600073ffffffffffffffffffffffffffffffffffffffff167f5c486528ec3e3f0ea91181cff8116f02bfa350e03b8b6f12e00765adbb5af85c60405160405180910390a3610613806100db6000396000f3fe608060405234801561001057600080fd5b506004361061004c5760003560e01c80638f32d59b14610051578063d99bb9f71461006f578063e02e64ea14610079578063f2fde38b14610097575b600080fd5b6100596100b3565b60405161006691906103d3565b60405180910390f35b61007761010a565b005b61008161020f565b60405161008e919061042f565b60405180910390f35b6100b160048036038101906100ac919061047b565b610238565b005b60008060009054906101000a900473ffffffffffffffffffffffffffffffffffffffff1673ffffffffffffffffffffffffffffffffffffffff163373ffffffffffffffffffffffffffffffffffffffff1614905090565b6101126100b3565b610151576040517f08c379a00000000000000000000000000000000000000000000000000000000081526004016101489061052b565b60405180910390fd5b600073ffffffffffffffffffffffffffffffffffffffff1660008054906101000a900473ffffffffffffffffffffffffffffffffffffffff1673ffffffffffffffffffffffffffffffffffffffff167f5c486528ec3e3f0ea91181cff8116f02bfa350e03b8b6f12e00765adbb5af85c60405160405180910390a360008060006101000a81548173ffffffffffffffffffffffffffffffffffffffff021916908373ffffffffffffffffffffffffffffffffffffffff160217905550565b60008060009054906101000a900473ffffffffffffffffffffffffffffffffffffffff16905090565b6102406100b3565b61027f576040517f08c379a00000000000000000000000000000000000000000000000000000000081526004016102769061052b565b60405180910390fd5b6102888161028b565b50565b600073ffffffffffffffffffffffffffffffffffffffff168173ffffffffffffffffffffffffffffffffffffffff1614156102fb576040517f08c379a00000000000000000000000000000000000000000000000000000000081526004016102f2906105bd565b60405180910390fd5b8073ffffffffffffffffffffffffffffffffffffffff1660008054906101000a900473ffffffffffffffffffffffffffffffffffffffff1673ffffffffffffffffffffffffffffffffffffffff167f5c486528ec3e3f0ea91181cff8116f02bfa350e03b8b6f12e00765adbb5af85c60405160405180910390a3806000806101000a81548173ffffffffffffffffffffffffffffffffffffffff021916908373ffffffffffffffffffffffffffffffffffffffff16021790555050565b60008115159050919050565b6103cd816103b8565b82525050565b60006020820190506103e860008301846103c4565b92915050565b600073ffffffffffffffffffffffffffffffffffffffff82169050919050565b6000610419826103ee565b9050919050565b6104298161040e565b82525050565b60006020820190506104446000830184610420565b92915050565b600080fd5b6104588161040e565b811461046357600080fd5b50565b6000813590506104758161044f565b92915050565b6000602082840312156104915761049061044a565b5b600061049f84828501610466565b91505092915050565b600082825260208201905092915050565b7f4572726f7220696e206f776e6572736869702e736f6c2c206f6e6c794f776e6560008201527f7228290000000000000000000000000000000000000000000000000000000000602082015250565b60006105156023836104a8565b9150610520826104b9565b604082019050919050565b6000602082019050818103600083015261054481610508565b9050919050565b7f4572726f7220696e206f776e6572736869702e736f6c2c207472616e7366657260008201527f4f776e6572736869702829000000000000000000000000000000000000000000602082015250565b60006105a7602b836104a8565b91506105b28261054b565b604082019050919050565b600060208201905081810360008301526105d68161059a565b905091905056fea26469706673582212207061e6715c6b75624ad4a5cd5d85ce4509cb6ac766a90edceb62a2de67441c2d64736f6c634300080b0033",
  "immutableReferences": {},
  "source": "// SPDX-License-Identifier: MIT\r\n\r\n/* \r\nThis class is used for assigning ownership and through it\r\nregulate who has the priviledges of making actions in the Supply Chain\r\n*/\r\npragma solidity ^0.8.0;\r\n\r\ncontract Ownership {\r\n    address private owner;\r\n    \r\n    event TransferOwnership (address indexed old, address indexed newOwner);\r\n\r\n    //Assign an owner to the contract\r\n    constructor () {\r\n        owner = msg.sender;\r\n        emit TransferOwnership(address(0), owner);\r\n    }\r\n\r\n    //Look the owner's address\r\n    function ownerLookup() public view returns (address) {\r\n        return owner;\r\n    }\r\n\r\n    //Check that the sender is the owner of the contract\r\n    function isOwner() public view returns (bool) {\r\n        return msg.sender == owner;\r\n    }\r\n\r\n    modifier onlyOwner() {\r\n        require(isOwner(), \"Error in ownership.sol, onlyOwner()\");\r\n        _;\r\n    }\r\n\r\n    //Only owner can remove ownership\r\n    function removeOwnership() public onlyOwner {\r\n        emit TransferOwnership(owner, address(0));\r\n        owner = address(0);\r\n    }\r\n\r\n    //Public transfterOwnership\r\n    function transferOwnership(address newOwner) public onlyOwner {\r\n        transferOwnershipInternal(newOwner);\r\n    }\r\n\r\n\r\n    //Internal trasnferOwnership\r\n    function transferOwnershipInternal(address newOwner) internal {\r\n        require (newOwner != address(0), \"Error in ownership.sol, transferOwnership()\");\r\n        emit TransferOwnership(owner, newOwner);\r\n        owner = newOwner ;\r\n    }\r\n\r\n\r\n}",
  "sourcePath": "C:\\Users\\teode\\Desktop\\21.22project\\Documents\\Code\\firstProject\\contracts\\Ownership.sol",
  "compiler": {
    "name": "solc",
    "version": "0.8.11+commit.d7f03943.Emscripten.clang"
  },
  "schemaVersion": "3.4.4",
  "updatedAt": "2022-04-28T18:15:13.947Z",
  "devdoc": {
    "kind": "dev",
    "methods": {},
    "version": 1
  },
  "userdoc": {
    "kind": "user",
    "methods": {},
    "version": 1
  }
}