{
  "contractName": "Part",
  "abi": [
    {
      "inputs": [
        {
          "internalType": "uint256",
          "name": "_id",
          "type": "uint256"
        },
        {
          "internalType": "int256",
          "name": "_lon",
          "type": "int256"
        },
        {
          "internalType": "int256",
          "name": "_lat",
          "type": "int256"
        },
        {
          "internalType": "uint256",
          "name": "_printerId",
          "type": "uint256"
        }
      ],
      "stateMutability": "nonpayable",
      "type": "constructor"
    },
    {
      "inputs": [
        {
          "internalType": "uint256",
          "name": "",
          "type": "uint256"
        }
      ],
      "name": "actions",
      "outputs": [
        {
          "internalType": "address",
          "name": "operator",
          "type": "address"
        },
        {
          "internalType": "enum Part.State",
          "name": "state",
          "type": "uint8"
        },
        {
          "internalType": "int256",
          "name": "lon",
          "type": "int256"
        },
        {
          "internalType": "int256",
          "name": "lat",
          "type": "int256"
        },
        {
          "internalType": "uint256",
          "name": "timestamp",
          "type": "uint256"
        },
        {
          "internalType": "uint256",
          "name": "blockcNo",
          "type": "uint256"
        }
      ],
      "stateMutability": "view",
      "type": "function"
    },
    {
      "inputs": [],
      "name": "deployed",
      "outputs": [
        {
          "internalType": "bool",
          "name": "",
          "type": "bool"
        }
      ],
      "stateMutability": "view",
      "type": "function"
    },
    {
      "inputs": [],
      "name": "id",
      "outputs": [
        {
          "internalType": "uint256",
          "name": "",
          "type": "uint256"
        }
      ],
      "stateMutability": "view",
      "type": "function"
    },
    {
      "inputs": [
        {
          "internalType": "enum Part.State",
          "name": "state",
          "type": "uint8"
        },
        {
          "internalType": "int256",
          "name": "lon",
          "type": "int256"
        },
        {
          "internalType": "int256",
          "name": "lat",
          "type": "int256"
        },
        {
          "internalType": "bool",
          "name": "_deployed",
          "type": "bool"
        }
      ],
      "name": "addAction",
      "outputs": [],
      "stateMutability": "nonpayable",
      "type": "function"
    },
    {
      "inputs": [],
      "name": "deploy",
      "outputs": [],
      "stateMutability": "nonpayable",
      "type": "function"
    },
    {
      "inputs": [],
      "name": "getState",
      "outputs": [
        {
          "internalType": "enum Part.State",
          "name": "",
          "type": "uint8"
        }
      ],
      "stateMutability": "view",
      "type": "function"
    }
  ],
  "bytecode": "0x60806040523480156200001157600080fd5b5060405162000c6438038062000c648339818101604052810190620000379190620002b8565b836000819055506000600160006101000a81548160ff021916908315150217905550806002819055506200006a620001dc565b33816000019073ffffffffffffffffffffffffffffffffffffffff16908173ffffffffffffffffffffffffffffffffffffffff1681525050600081602001906004811115620000be57620000bd6200032a565b5b90816004811115620000d557620000d46200032a565b5b81525050838160400181815250508281606001818152505042816080018181525050438160a0018181525050600381908060018154018082558091505060019003906000526020600020906005020160009091909190915060008201518160000160006101000a81548173ffffffffffffffffffffffffffffffffffffffff021916908373ffffffffffffffffffffffffffffffffffffffff16021790555060208201518160000160146101000a81548160ff02191690836004811115620001a257620001a16200032a565b5b021790555060408201518160010155606082015181600201556080820151816003015560a082015181600401555050505050505062000359565b6040518060c00160405280600073ffffffffffffffffffffffffffffffffffffffff168152602001600060048111156200021b576200021a6200032a565b5b8152602001600081526020016000815260200160008152602001600081525090565b600080fd5b6000819050919050565b620002578162000242565b81146200026357600080fd5b50565b60008151905062000277816200024c565b92915050565b6000819050919050565b62000292816200027d565b81146200029e57600080fd5b50565b600081519050620002b28162000287565b92915050565b60008060008060808587031215620002d557620002d46200023d565b5b6000620002e58782880162000266565b9450506020620002f887828801620002a1565b93505060406200030b87828801620002a1565b92505060606200031e8782880162000266565b91505092959194509250565b7f4e487b7100000000000000000000000000000000000000000000000000000000600052602160045260246000fd5b6108fb80620003696000396000f3fe608060405234801561001057600080fd5b50600436106100625760003560e01c80631865c57d1461006757806360a436a414610085578063775c300c146100a157806383240f83146100ab578063af640d0f146100e0578063f905c15a146100fe575b600080fd5b61006f61011c565b60405161007c919061050e565b60405180910390f35b61009f600480360381019061009a91906105c1565b610167565b005b6100a961033c565b005b6100c560048036038101906100c0919061065e565b6103a7565b6040516100d7969594939291906106ea565b60405180910390f35b6100e8610420565b6040516100f5919061074b565b60405180910390f35b610106610426565b6040516101139190610775565b60405180910390f35b60006003600160038054905061013291906107bf565b81548110610143576101426107f3565b5b906000526020600020906005020160000160149054906101000a900460ff16905090565b600160009054906101000a900460ff166101b6576040517f08c379a00000000000000000000000000000000000000000000000000000000081526004016101ad906108a5565b60405180910390fd5b6101be610439565b33816000019073ffffffffffffffffffffffffffffffffffffffff16908173ffffffffffffffffffffffffffffffffffffffff1681525050848160200190600481111561020e5761020d610497565b5b9081600481111561022257610221610497565b5b8152505081600160006101000a81548160ff021916908315150217905550838160400181815250508281606001818152505042816080018181525050438160a0018181525050600381908060018154018082558091505060019003906000526020600020906005020160009091909190915060008201518160000160006101000a81548173ffffffffffffffffffffffffffffffffffffffff021916908373ffffffffffffffffffffffffffffffffffffffff16021790555060208201518160000160146101000a81548160ff0219169083600481111561030657610305610497565b5b021790555060408201518160010155606082015181600201556080820151816003015560a0820151816004015550505050505050565b600160009054906101000a900460ff1661038b576040517f08c379a0000000000000000000000000000000000000000000000000000000008152600401610382906108a5565b60405180910390fd5b60018060006101000a81548160ff021916908315150217905550565b600381815481106103b757600080fd5b90600052602060002090600502016000915090508060000160009054906101000a900473ffffffffffffffffffffffffffffffffffffffff16908060000160149054906101000a900460ff16908060010154908060020154908060030154908060040154905086565b60005481565b600160009054906101000a900460ff1681565b6040518060c00160405280600073ffffffffffffffffffffffffffffffffffffffff1681526020016000600481111561047557610474610497565b5b8152602001600081526020016000815260200160008152602001600081525090565b7f4e487b7100000000000000000000000000000000000000000000000000000000600052602160045260246000fd5b600581106104d7576104d6610497565b5b50565b60008190506104e8826104c6565b919050565b60006104f8826104da565b9050919050565b610508816104ed565b82525050565b600060208201905061052360008301846104ff565b92915050565b600080fd5b6005811061053b57600080fd5b50565b60008135905061054d8161052e565b92915050565b6000819050919050565b61056681610553565b811461057157600080fd5b50565b6000813590506105838161055d565b92915050565b60008115159050919050565b61059e81610589565b81146105a957600080fd5b50565b6000813590506105bb81610595565b92915050565b600080600080608085870312156105db576105da610529565b5b60006105e98782880161053e565b94505060206105fa87828801610574565b935050604061060b87828801610574565b925050606061061c878288016105ac565b91505092959194509250565b6000819050919050565b61063b81610628565b811461064657600080fd5b50565b60008135905061065881610632565b92915050565b60006020828403121561067457610673610529565b5b600061068284828501610649565b91505092915050565b600073ffffffffffffffffffffffffffffffffffffffff82169050919050565b60006106b68261068b565b9050919050565b6106c6816106ab565b82525050565b6106d581610553565b82525050565b6106e481610628565b82525050565b600060c0820190506106ff60008301896106bd565b61070c60208301886104ff565b61071960408301876106cc565b61072660608301866106cc565b61073360808301856106db565b61074060a08301846106db565b979650505050505050565b600060208201905061076060008301846106db565b92915050565b61076f81610589565b82525050565b600060208201905061078a6000830184610766565b92915050565b7f4e487b7100000000000000000000000000000000000000000000000000000000600052601160045260246000fd5b60006107ca82610628565b91506107d583610628565b9250828210156107e8576107e7610790565b5b828203905092915050565b7f4e487b7100000000000000000000000000000000000000000000000000000000600052603260045260246000fd5b600082825260208201905092915050565b7f546865207061727420697320616c7265616479206465706c6f7965642c206e6f60008201527f206675726874657220616374696f6e732063616e20626520646f6e6500000000602082015250565b600061088f603c83610822565b915061089a82610833565b604082019050919050565b600060208201905081810360008301526108be81610882565b905091905056fea2646970667358221220d45ff22a38e8f78418441da14b1b3602b028db23c6fe4cef84040dbee02c552d64736f6c634300080b0033",
  "immutableReferences": {},
  "source": "// SPDX-License-Identifier: MIT\r\n\r\n/* \r\nNOTES FOR FUTURE DEVELOPMENT:\r\n-> Create db's for contracts and factories?\r\n\r\n\r\n\r\n*/\r\npragma solidity ^0.8.0;\r\n\r\ncontract Part {\r\n    //address public DATABASE_CONTRACT; // its db contract\r\n    //address public PRODUCT_FACTORY; //reference to its product factory\r\n\r\n    uint public id;\r\n    bool public deployed;\r\n    uint printerId;\r\n    \r\n    enum State {Created, Stored, Deployed, ShippedToDepot, ShippedToField}\r\n    \r\n    \r\n    struct Action {\r\n        address operator; //the address of the operator making that action\r\n        State state;\r\n        \r\n\r\n        int lon;    //Longitude of the action\r\n        int lat;    //Latitude of the action\r\n\r\n        uint timestamp;    //time of the action\r\n        uint blockcNo;     // block when action is done    \r\n\r\n    }\r\n    Action[] public actions;\r\n\r\n    modifier isDeployed {\r\n        require(deployed, \r\n                \"The part is already deployed, no furhter actions can be done\"\r\n                );\r\n        _;\r\n    }\r\n\r\n    constructor (uint _id, int _lon, int _lat, uint _printerId) {\r\n        id = _id;\r\n        deployed = false;\r\n        printerId = _printerId;\r\n\r\n        Action memory creation;\r\n        creation.operator = msg.sender;\r\n        creation.state = State.Created;\r\n        creation.lon = _lon;\r\n        creation.lat = _lat;\r\n        creation.timestamp = block.timestamp; //is it secure?\r\n        creation.blockcNo = block.number; //Is it secure?\r\n\r\n        actions.push(creation);\r\n\r\n        /*\r\n        Check for use of db's\r\n        */\r\n        //Database database = Database(DATABASE_CONTRACT);\r\n        //database.storeProductReferences(this);\r\n    }\r\n    \r\n    function addAction (State state, int lon, int lat, bool _deployed) public isDeployed {\r\n        Action memory action;\r\n        action.operator = msg.sender;\r\n        action.state = state;\r\n        deployed = _deployed;\r\n        action.lon = lon;\r\n        action.lat = lat;\r\n        action.timestamp = block.timestamp;\r\n        action.blockcNo = block.number;\r\n\r\n        \r\n        actions.push(action);\r\n    }\r\n\r\n    function deploy() public isDeployed {\r\n        deployed = true;\r\n    }\r\n\r\n    function getState() public view returns (State) {\r\n        return actions[actions.length-1].state;\r\n    }\r\n\r\n}",
  "sourcePath": "C:\\Users\\teode\\Desktop\\21.22project\\Documents\\Code\\firstProject\\contracts\\Part.sol",
  "compiler": {
    "name": "solc",
    "version": "0.8.11+commit.d7f03943.Emscripten.clang"
  },
  "schemaVersion": "3.4.4",
  "updatedAt": "2022-03-16T11:29:02.768Z",
  "devdoc": {
    "kind": "dev",
    "methods": {},
    "version": 1
  },
  "userdoc": {
    "kind": "user",
    "methods": {},
    "version": 1
  }
}