{
  "contractName": "SupplyChain",
  "abi": [
    {
      "inputs": [],
      "stateMutability": "nonpayable",
      "type": "constructor"
    },
    {
      "anonymous": false,
      "inputs": [
        {
          "indexed": true,
          "internalType": "address",
          "name": "account",
          "type": "address"
        }
      ],
      "name": "AddedManagerDepot",
      "type": "event"
    },
    {
      "anonymous": false,
      "inputs": [
        {
          "indexed": true,
          "internalType": "address",
          "name": "account",
          "type": "address"
        }
      ],
      "name": "AddedManagerField",
      "type": "event"
    },
    {
      "anonymous": false,
      "inputs": [
        {
          "indexed": true,
          "internalType": "address",
          "name": "account",
          "type": "address"
        }
      ],
      "name": "AddedOperator",
      "type": "event"
    },
    {
      "anonymous": false,
      "inputs": [
        {
          "indexed": false,
          "internalType": "uint256",
          "name": "_upc",
          "type": "uint256"
        }
      ],
      "name": "ApprovedPart",
      "type": "event"
    },
    {
      "anonymous": false,
      "inputs": [
        {
          "indexed": false,
          "internalType": "uint256",
          "name": "upc",
          "type": "uint256"
        }
      ],
      "name": "Created",
      "type": "event"
    },
    {
      "anonymous": false,
      "inputs": [
        {
          "indexed": false,
          "internalType": "uint256",
          "name": "upc",
          "type": "uint256"
        }
      ],
      "name": "Deployed",
      "type": "event"
    },
    {
      "anonymous": false,
      "inputs": [
        {
          "indexed": false,
          "internalType": "uint256",
          "name": "depotId",
          "type": "uint256"
        }
      ],
      "name": "DepotCreated",
      "type": "event"
    },
    {
      "anonymous": false,
      "inputs": [
        {
          "indexed": false,
          "internalType": "uint256",
          "name": "depotId",
          "type": "uint256"
        }
      ],
      "name": "DepotDeleted",
      "type": "event"
    },
    {
      "anonymous": false,
      "inputs": [
        {
          "indexed": false,
          "internalType": "uint256",
          "name": "upc",
          "type": "uint256"
        }
      ],
      "name": "DiscardedPart",
      "type": "event"
    },
    {
      "anonymous": false,
      "inputs": [
        {
          "indexed": false,
          "internalType": "address",
          "name": "description",
          "type": "address"
        }
      ],
      "name": "LogNewAlert",
      "type": "event"
    },
    {
      "anonymous": false,
      "inputs": [
        {
          "indexed": true,
          "internalType": "address",
          "name": "account",
          "type": "address"
        }
      ],
      "name": "MadeAvailableManagerDepot",
      "type": "event"
    },
    {
      "anonymous": false,
      "inputs": [
        {
          "indexed": true,
          "internalType": "address",
          "name": "account",
          "type": "address"
        }
      ],
      "name": "MadeAvailableOperator",
      "type": "event"
    },
    {
      "anonymous": false,
      "inputs": [
        {
          "indexed": true,
          "internalType": "address",
          "name": "account",
          "type": "address"
        }
      ],
      "name": "MadeUnavailableManagerDepot",
      "type": "event"
    },
    {
      "anonymous": false,
      "inputs": [
        {
          "indexed": true,
          "internalType": "address",
          "name": "account",
          "type": "address"
        }
      ],
      "name": "MadeUnavailableOperator",
      "type": "event"
    },
    {
      "anonymous": false,
      "inputs": [
        {
          "indexed": true,
          "internalType": "address",
          "name": "account",
          "type": "address"
        }
      ],
      "name": "RemovedManagerDepot",
      "type": "event"
    },
    {
      "anonymous": false,
      "inputs": [
        {
          "indexed": true,
          "internalType": "address",
          "name": "account",
          "type": "address"
        }
      ],
      "name": "RemovedManagerField",
      "type": "event"
    },
    {
      "anonymous": false,
      "inputs": [
        {
          "indexed": true,
          "internalType": "address",
          "name": "account",
          "type": "address"
        }
      ],
      "name": "RemovedOperator",
      "type": "event"
    },
    {
      "anonymous": false,
      "inputs": [
        {
          "indexed": false,
          "internalType": "uint256",
          "name": "_upc",
          "type": "uint256"
        }
      ],
      "name": "RequestedPart",
      "type": "event"
    },
    {
      "anonymous": false,
      "inputs": [
        {
          "indexed": false,
          "internalType": "uint256",
          "name": "upc",
          "type": "uint256"
        }
      ],
      "name": "ShippedToDepot",
      "type": "event"
    },
    {
      "anonymous": false,
      "inputs": [
        {
          "indexed": false,
          "internalType": "uint256",
          "name": "upc",
          "type": "uint256"
        }
      ],
      "name": "ShippedToField",
      "type": "event"
    },
    {
      "anonymous": false,
      "inputs": [
        {
          "indexed": false,
          "internalType": "uint256",
          "name": "upc",
          "type": "uint256"
        }
      ],
      "name": "StoredAtDepot",
      "type": "event"
    },
    {
      "anonymous": false,
      "inputs": [
        {
          "indexed": true,
          "internalType": "address",
          "name": "old",
          "type": "address"
        },
        {
          "indexed": true,
          "internalType": "address",
          "name": "newOwner",
          "type": "address"
        }
      ],
      "name": "TransferOwnership",
      "type": "event"
    },
    {
      "inputs": [
        {
          "internalType": "address",
          "name": "account",
          "type": "address"
        }
      ],
      "name": "isAvailableManagerDepot",
      "outputs": [
        {
          "internalType": "bool",
          "name": "",
          "type": "bool"
        }
      ],
      "stateMutability": "view",
      "type": "function"
    },
    {
      "inputs": [
        {
          "internalType": "address",
          "name": "account",
          "type": "address"
        }
      ],
      "name": "isAvailableOperator",
      "outputs": [
        {
          "internalType": "bool",
          "name": "",
          "type": "bool"
        }
      ],
      "stateMutability": "view",
      "type": "function"
    },
    {
      "inputs": [
        {
          "internalType": "address",
          "name": "account",
          "type": "address"
        }
      ],
      "name": "isManagerDepot",
      "outputs": [
        {
          "internalType": "bool",
          "name": "",
          "type": "bool"
        }
      ],
      "stateMutability": "view",
      "type": "function"
    },
    {
      "inputs": [
        {
          "internalType": "address",
          "name": "account",
          "type": "address"
        }
      ],
      "name": "isManagerField",
      "outputs": [
        {
          "internalType": "bool",
          "name": "",
          "type": "bool"
        }
      ],
      "stateMutability": "view",
      "type": "function"
    },
    {
      "inputs": [
        {
          "internalType": "address",
          "name": "account",
          "type": "address"
        }
      ],
      "name": "isOperator",
      "outputs": [
        {
          "internalType": "bool",
          "name": "",
          "type": "bool"
        }
      ],
      "stateMutability": "view",
      "type": "function"
    },
    {
      "inputs": [],
      "name": "isOwner",
      "outputs": [
        {
          "internalType": "bool",
          "name": "",
          "type": "bool"
        }
      ],
      "stateMutability": "view",
      "type": "function"
    },
    {
      "inputs": [
        {
          "internalType": "address",
          "name": "account",
          "type": "address"
        }
      ],
      "name": "makeAvailableManagerDepot",
      "outputs": [],
      "stateMutability": "nonpayable",
      "type": "function"
    },
    {
      "inputs": [
        {
          "internalType": "address",
          "name": "account",
          "type": "address"
        }
      ],
      "name": "makeAvailableOperator",
      "outputs": [],
      "stateMutability": "nonpayable",
      "type": "function"
    },
    {
      "inputs": [
        {
          "internalType": "address",
          "name": "account",
          "type": "address"
        }
      ],
      "name": "makeUnavailableManagerDepot",
      "outputs": [],
      "stateMutability": "nonpayable",
      "type": "function"
    },
    {
      "inputs": [
        {
          "internalType": "address",
          "name": "account",
          "type": "address"
        }
      ],
      "name": "makeUnavailableOperator",
      "outputs": [],
      "stateMutability": "nonpayable",
      "type": "function"
    },
    {
      "inputs": [],
      "name": "ownerLookup",
      "outputs": [
        {
          "internalType": "address",
          "name": "",
          "type": "address"
        }
      ],
      "stateMutability": "view",
      "type": "function"
    },
    {
      "inputs": [],
      "name": "removeOwnership",
      "outputs": [],
      "stateMutability": "nonpayable",
      "type": "function"
    },
    {
      "inputs": [
        {
          "internalType": "address",
          "name": "newOwner",
          "type": "address"
        }
      ],
      "name": "transferOwnership",
      "outputs": [],
      "stateMutability": "nonpayable",
      "type": "function"
    },
    {
      "inputs": [
        {
          "internalType": "address",
          "name": "account",
          "type": "address"
        }
      ],
      "name": "addOperator",
      "outputs": [],
      "stateMutability": "nonpayable",
      "type": "function"
    },
    {
      "inputs": [
        {
          "internalType": "address",
          "name": "account",
          "type": "address"
        }
      ],
      "name": "addManagerDepot",
      "outputs": [],
      "stateMutability": "nonpayable",
      "type": "function"
    },
    {
      "inputs": [
        {
          "internalType": "address",
          "name": "account",
          "type": "address"
        }
      ],
      "name": "addManagerField",
      "outputs": [],
      "stateMutability": "nonpayable",
      "type": "function"
    },
    {
      "inputs": [],
      "name": "removeManagerDepot",
      "outputs": [],
      "stateMutability": "nonpayable",
      "type": "function"
    },
    {
      "inputs": [],
      "name": "removeManagerField",
      "outputs": [],
      "stateMutability": "nonpayable",
      "type": "function"
    },
    {
      "inputs": [],
      "name": "removeOperator",
      "outputs": [],
      "stateMutability": "nonpayable",
      "type": "function"
    },
    {
      "inputs": [
        {
          "internalType": "uint256",
          "name": "_depotId",
          "type": "uint256"
        },
        {
          "internalType": "address",
          "name": "_operator",
          "type": "address"
        },
        {
          "internalType": "address",
          "name": "_manager",
          "type": "address"
        }
      ],
      "name": "addDepot",
      "outputs": [],
      "stateMutability": "nonpayable",
      "type": "function"
    },
    {
      "inputs": [
        {
          "internalType": "uint256",
          "name": "_depotId",
          "type": "uint256"
        }
      ],
      "name": "deleteDepot",
      "outputs": [],
      "stateMutability": "nonpayable",
      "type": "function"
    },
    {
      "inputs": [
        {
          "internalType": "uint256",
          "name": "_upc",
          "type": "uint256"
        },
        {
          "internalType": "uint256",
          "name": "_layer_thickness",
          "type": "uint256"
        },
        {
          "internalType": "string",
          "name": "_fill_pattern",
          "type": "string"
        },
        {
          "internalType": "string",
          "name": "_orientation",
          "type": "string"
        },
        {
          "internalType": "bytes32",
          "name": "_stl",
          "type": "bytes32"
        },
        {
          "internalType": "bytes32",
          "name": "_cad",
          "type": "bytes32"
        },
        {
          "internalType": "int256",
          "name": "_temp",
          "type": "int256"
        }
      ],
      "name": "requestPart",
      "outputs": [],
      "stateMutability": "nonpayable",
      "type": "function"
    },
    {
      "inputs": [
        {
          "internalType": "uint256",
          "name": "_upc",
          "type": "uint256"
        }
      ],
      "name": "approvePart",
      "outputs": [],
      "stateMutability": "nonpayable",
      "type": "function"
    },
    {
      "inputs": [
        {
          "internalType": "uint256",
          "name": "_upc",
          "type": "uint256"
        }
      ],
      "name": "discardPart",
      "outputs": [],
      "stateMutability": "nonpayable",
      "type": "function"
    },
    {
      "inputs": [
        {
          "internalType": "uint256",
          "name": "_upc",
          "type": "uint256"
        },
        {
          "internalType": "int256",
          "name": "_lon",
          "type": "int256"
        },
        {
          "internalType": "int256",
          "name": "_lat",
          "type": "int256"
        },
        {
          "internalType": "uint256",
          "name": "_depot",
          "type": "uint256"
        }
      ],
      "name": "createdPart",
      "outputs": [],
      "stateMutability": "nonpayable",
      "type": "function"
    },
    {
      "inputs": [
        {
          "internalType": "uint256",
          "name": "_upc",
          "type": "uint256"
        },
        {
          "internalType": "address",
          "name": "_depotManager",
          "type": "address"
        }
      ],
      "name": "shipPartToDepot",
      "outputs": [],
      "stateMutability": "nonpayable",
      "type": "function"
    },
    {
      "inputs": [
        {
          "internalType": "uint256",
          "name": "_upc",
          "type": "uint256"
        },
        {
          "internalType": "address",
          "name": "_fieldManager",
          "type": "address"
        }
      ],
      "name": "shipPartToField",
      "outputs": [],
      "stateMutability": "nonpayable",
      "type": "function"
    },
    {
      "inputs": [
        {
          "internalType": "uint256",
          "name": "_upc",
          "type": "uint256"
        }
      ],
      "name": "deployPart",
      "outputs": [],
      "stateMutability": "nonpayable",
      "type": "function"
    },
    {
      "inputs": [
        {
          "internalType": "uint256",
          "name": "_upc",
          "type": "uint256"
        }
      ],
      "name": "getPart",
      "outputs": [
        {
          "internalType": "uint256",
          "name": "id",
          "type": "uint256"
        },
        {
          "internalType": "uint256",
          "name": "_stock",
          "type": "uint256"
        },
        {
          "internalType": "bytes32",
          "name": "printerId",
          "type": "bytes32"
        },
        {
          "internalType": "address",
          "name": "partOwner",
          "type": "address"
        },
        {
          "internalType": "address",
          "name": "partOperator",
          "type": "address"
        },
        {
          "internalType": "uint256",
          "name": "creationDepotId",
          "type": "uint256"
        },
        {
          "internalType": "enum SupplyChain.State",
          "name": "state",
          "type": "uint8"
        },
        {
          "internalType": "int256",
          "name": "lon",
          "type": "int256"
        },
        {
          "internalType": "int256",
          "name": "lat",
          "type": "int256"
        },
        {
          "internalType": "uint256",
          "name": "timestamp",
          "type": "uint256"
        },
        {
          "internalType": "bool",
          "name": "deployed",
          "type": "bool"
        }
      ],
      "stateMutability": "view",
      "type": "function"
    },
    {
      "inputs": [
        {
          "internalType": "uint256",
          "name": "_depotId",
          "type": "uint256"
        }
      ],
      "name": "getDepot",
      "outputs": [
        {
          "internalType": "address",
          "name": "depotOperator",
          "type": "address"
        },
        {
          "internalType": "address",
          "name": "depotManager",
          "type": "address"
        },
        {
          "internalType": "bool",
          "name": "isDCreated",
          "type": "bool"
        }
      ],
      "stateMutability": "view",
      "type": "function"
    },
    {
      "inputs": [
        {
          "internalType": "uint256",
          "name": "_upc",
          "type": "uint256"
        }
      ],
      "name": "getPartHistory",
      "outputs": [
        {
          "internalType": "uint256",
          "name": "creation",
          "type": "uint256"
        },
        {
          "internalType": "uint256",
          "name": "dtd",
          "type": "uint256"
        },
        {
          "internalType": "uint256",
          "name": "dtf",
          "type": "uint256"
        }
      ],
      "stateMutability": "view",
      "type": "function"
    },
    {
      "inputs": [
        {
          "internalType": "uint256",
          "name": "_upc",
          "type": "uint256"
        }
      ],
      "name": "getSpecs",
      "outputs": [
        {
          "internalType": "bytes32",
          "name": "printerId",
          "type": "bytes32"
        },
        {
          "internalType": "uint256",
          "name": "_layer_thickness",
          "type": "uint256"
        },
        {
          "internalType": "string",
          "name": "_fill_pattern",
          "type": "string"
        },
        {
          "internalType": "string",
          "name": "_orientation",
          "type": "string"
        },
        {
          "internalType": "bytes32",
          "name": "_stl",
          "type": "bytes32"
        },
        {
          "internalType": "bytes32",
          "name": "_cad",
          "type": "bytes32"
        },
        {
          "internalType": "int256",
          "name": "_temp",
          "type": "int256"
        },
        {
          "internalType": "enum SupplyChain.PrinterStage",
          "name": "pStage",
          "type": "uint8"
        }
      ],
      "stateMutability": "view",
      "type": "function"
    }
  ],
  "bytecode": "0x60806040523480156200001157600080fd5b50336000806101000a81548173ffffffffffffffffffffffffffffffffffffffff021916908373ffffffffffffffffffffffffffffffffffffffff16021790555060008054906101000a900473ffffffffffffffffffffffffffffffffffffffff1673ffffffffffffffffffffffffffffffffffffffff16600073ffffffffffffffffffffffffffffffffffffffff167f5c486528ec3e3f0ea91181cff8116f02bfa350e03b8b6f12e00765adbb5af85c60405160405180910390a3620000de336200015760201b60201c565b620000ef33620001b860201b60201c565b62000100336200021960201b60201c565b33600760006101000a81548173ffffffffffffffffffffffffffffffffffffffff021916908373ffffffffffffffffffffffffffffffffffffffff1602179055506001600881905550600160098190555062000678565b620001728160016200027a60201b6200316b1790919060201c565b8073ffffffffffffffffffffffffffffffffffffffff167f62cb02f3de5017db2b7d0bffac1845be0b5034dc8dbde6e56dd561e2b22446c260405160405180910390a250565b620001d38160036200027a60201b6200316b1790919060201c565b8073ffffffffffffffffffffffffffffffffffffffff167fc4c92e1239d509971246356ff7063b7f209ee3f0f8d13333b9e6859ce6d32f6060405160405180910390a250565b620002348160056200027a60201b6200316b1790919060201c565b8073ffffffffffffffffffffffffffffffffffffffff167fb356241f4c9415a59716f1506d9a7d7f97eca0b3b99b43f050a73965017093e560405160405180910390a250565b600073ffffffffffffffffffffffffffffffffffffffff168173ffffffffffffffffffffffffffffffffffffffff161415620002ed576040517f08c379a0000000000000000000000000000000000000000000000000000000008152600401620002e4906200054c565b60405180910390fd5b620002ff8282620003fa60201b60201c565b1562000342576040517f08c379a00000000000000000000000000000000000000000000000000000000081526004016200033990620005e4565b60405180910390fd5b60018260000160008373ffffffffffffffffffffffffffffffffffffffff1673ffffffffffffffffffffffffffffffffffffffff16815260200190815260200160002060006101000a81548160ff02191690831515021790555060018260010160008373ffffffffffffffffffffffffffffffffffffffff1673ffffffffffffffffffffffffffffffffffffffff16815260200190815260200160002060006101000a81548160ff0219169083151502179055505050565b60008073ffffffffffffffffffffffffffffffffffffffff168273ffffffffffffffffffffffffffffffffffffffff1614156200046e576040517f08c379a0000000000000000000000000000000000000000000000000000000008152600401620004659062000656565b60405180910390fd5b8260000160008373ffffffffffffffffffffffffffffffffffffffff1673ffffffffffffffffffffffffffffffffffffffff16815260200190815260200160002060009054906101000a900460ff16905092915050565b600082825260208201905092915050565b7f4572726f7220696e20526f6c65732e736f6c2c2061646428292066697273742060008201527f726571756972656d656e74000000000000000000000000000000000000000000602082015250565b600062000534602b83620004c5565b91506200054182620004d6565b604082019050919050565b60006020820190508181036000830152620005678162000525565b9050919050565b7f4572726f7220696e20526f6c65732e736f6c2c206164642829207365636f6e6460008201527f20726571756972656d656e740000000000000000000000000000000000000000602082015250565b6000620005cc602c83620004c5565b9150620005d9826200056e565b604082019050919050565b60006020820190508181036000830152620005ff81620005bd565b9050919050565b7f4572726f7220696e20526f6c65732e736f6c2c206f776e732829000000000000600082015250565b60006200063e601a83620004c5565b91506200064b8262000606565b602082019050919050565b6000602082019050818103600083015262000671816200062f565b9050919050565b6159f580620006886000396000f3fe608060405234801561001057600080fd5b50600436106101f05760003560e01c8063719fbab71161010f578063c4203f03116100a2578063e6f3b3ad11610071578063e6f3b3ad1461056f578063f2fde38b146105a6578063f95e52de146105c2578063faf168ff146105de576101f0565b8063c4203f031461050f578063c725e1bf1461052b578063d99bb9f714610547578063e02e64ea14610551576101f0565b80639870d7fe116100de5780639870d7fe1461049f5780639e06432d146104bb578063a12a4be2146104d7578063c206f700146104f3576101f0565b8063719fbab7146104195780637d6a8678146104495780638cf131fb146104655780638f32d59b14610481576101f0565b8063336605341161018757806355aa3fe81161015657806355aa3fe8146103955780635ff971aa146103b157806362f9b8ed146103cd5780636d70f7ae146103e9576101f0565b8063336605341461032357806341ff2b571461033f57806351c3ae831461035b5780635268ea6d14610365576101f0565b80631e47b491116101c35780631e47b4911461029357806320e54548146102af57806323f1b215146102b9578063304fe350146102e9576101f0565b80630180fcfc146101f557806305334b34146101ff57806312de102b1461022f578063183d9db914610261575b600080fd5b6101fd6105fa565b005b61021960048036038101906102149190613f44565b6106a5565b6040516102269190613f8c565b60405180910390f35b61024960048036038101906102449190613fdd565b6106c2565b60405161025893929190614019565b60405180910390f35b61027b60048036038101906102769190613fdd565b61084e565b60405161028a9392919061405f565b60405180910390f35b6102ad60048036038101906102a89190614096565b610927565b005b6102b7610d2e565b005b6102d360048036038101906102ce9190613f44565b610dd9565b6040516102e09190613f8c565b60405180910390f35b61030360048036038101906102fe9190613fdd565b610df6565b60405161031a9b9a9998979695949392919061417f565b60405180910390f35b61033d60048036038101906103389190613f44565b611053565b005b61035960048036038101906103549190614096565b6111dc565b005b6103636115e3565b005b61037f600480360381019061037a9190613f44565b61168e565b60405161038c9190613f8c565b60405180910390f35b6103af60048036038101906103aa9190613fdd565b6116ab565b005b6103cb60048036038101906103c69190613fdd565b61182b565b005b6103e760048036038101906103e29190613f44565b611a4d565b005b61040360048036038101906103fe9190613f44565b611bd6565b6040516104109190613f8c565b60405180910390f35b610433600480360381019061042e9190613f44565b611bf3565b6040516104409190613f8c565b60405180910390f35b610463600480360381019061045e9190613f44565b611c10565b005b61047f600480360381019061047a9190613f44565b611cb2565b005b610489611d54565b6040516104969190613f8c565b60405180910390f35b6104b960048036038101906104b49190613f44565b611dab565b005b6104d560048036038101906104d09190613f44565b611f34565b005b6104f160048036038101906104ec9190613f44565b611fd6565b005b61050d60048036038101906105089190614256565b612078565b005b61052960048036038101906105249190613fdd565b61259a565b005b61054560048036038101906105409190613fdd565b6126e7565b005b61054f6128cc565b005b6105596129d1565b60405161056691906142bd565b60405180910390f35b61058960048036038101906105849190613fdd565b6129fa565b60405161059d9897969594939291906143b9565b60405180910390f35b6105c060048036038101906105bb9190613f44565b612c75565b005b6105dc60048036038101906105d79190614445565b612cc8565b005b6105f860048036038101906105f391906145f9565b612ef6565b005b610603336106a5565b610642576040517f08c379a000000000000000000000000000000000000000000000000000000000815260040161063990614745565b60405180910390fd5b61064b336132dd565b6000600e60003373ffffffffffffffffffffffffffffffffffffffff1673ffffffffffffffffffffffffffffffffffffffff16815260200190815260200160002060006101000a81548160ff021916908315150217905550565b60006106bb82600561333790919063ffffffff16565b9050919050565b60008060006106cf611d54565b806106df57506106de33610dd9565b5b806106ef57506106ee336106a5565b5b806106ff57506106fe33611bd6565b5b61073e576040517f08c379a0000000000000000000000000000000000000000000000000000000008152600401610735906147d7565b60405180910390fd5b6000600c6000868152602001908152602001600020604051806080016040529081600082015481526020016001820160009054906101000a900473ffffffffffffffffffffffffffffffffffffffff1673ffffffffffffffffffffffffffffffffffffffff1673ffffffffffffffffffffffffffffffffffffffff1681526020016002820160009054906101000a900473ffffffffffffffffffffffffffffffffffffffff1673ffffffffffffffffffffffffffffffffffffffff1673ffffffffffffffffffffffffffffffffffffffff1681526020016002820160149054906101000a900460ff1615151515815250509050806020015181604001518260600151935093509350509193909250565b600080600061085b611d54565b8061086b575061086a33610dd9565b5b8061087b575061087a336106a5565b5b8061088b575061088a33611bd6565b5b6108ca576040517f08c379a00000000000000000000000000000000000000000000000000000000081526004016108c1906147d7565b60405180910390fd5b6000600b600086815260200190815260200160002060405180606001604052908160008201548152602001600182015481526020016002820154815250509050806000015181602001518260400151935093509350509193909250565b61093033610dd9565b61096f576040517f08c379a000000000000000000000000000000000000000000000000000000000815260040161096690614869565b60405180910390fd5b8160006003811115610984576109836140ef565b5b600a600083815260200190815260200160002060020160009054906101000a900460ff1660038111156109ba576109b96140ef565b5b1480610a0d5750600160038111156109d5576109d46140ef565b5b600a600083815260200190815260200160002060020160009054906101000a900460ff166003811115610a0b57610a0a6140ef565b5b145b610a4c576040517f08c379a0000000000000000000000000000000000000000000000000000000008152600401610a43906148d5565b60405180910390fd5b600a600084815260200190815260200160002060090160009054906101000a900473ffffffffffffffffffffffffffffffffffffffff168073ffffffffffffffffffffffffffffffffffffffff163373ffffffffffffffffffffffffffffffffffffffff1614610af1576040517f08c379a0000000000000000000000000000000000000000000000000000000008152600401610ae890614967565b60405180910390fd5b610afa836106a5565b610b39576040517f08c379a0000000000000000000000000000000000000000000000000000000008152600401610b30906149d3565b60405180910390fd5b600a600085815260200190815260200160002060060160009054906101000a900460ff1615610b9d576040517f08c379a0000000000000000000000000000000000000000000000000000000008152600401610b9490614a3f565b60405180910390fd5b8273ffffffffffffffffffffffffffffffffffffffff16600a600086815260200190815260200160002060090160009054906101000a900473ffffffffffffffffffffffffffffffffffffffff1673ffffffffffffffffffffffffffffffffffffffff161415610c42576040517f08c379a0000000000000000000000000000000000000000000000000000000008152600401610c3990614ad1565b60405180910390fd5b6002600a600086815260200190815260200160002060020160006101000a81548160ff02191690836003811115610c7c57610c7b6140ef565b5b021790555082600a600086815260200190815260200160002060090160006101000a81548173ffffffffffffffffffffffffffffffffffffffff021916908373ffffffffffffffffffffffffffffffffffffffff16021790555043600b6000868152602001908152602001600020600201819055507fd913ca6618bab458f2a906ee3f8f0551c71abc8a3715c9d54e779c64d0f31e2984604051610d209190614af1565b60405180910390a150505050565b610d3733611bd6565b610d76576040517f08c379a0000000000000000000000000000000000000000000000000000000008152600401610d6d90614b7e565b60405180910390fd5b610d7f336133ff565b6000600e60003373ffffffffffffffffffffffffffffffffffffffff1673ffffffffffffffffffffffffffffffffffffffff16815260200190815260200160002060006101000a81548160ff021916908315150217905550565b6000610def82600361333790919063ffffffff16565b9050919050565b6000806000806000806000806000806000610e0f611d54565b80610e1f5750610e1e33610dd9565b5b80610e2f5750610e2e336106a5565b5b80610e3f5750610e3e33611bd6565b5b610e7e576040517f08c379a0000000000000000000000000000000000000000000000000000000008152600401610e75906147d7565b60405180910390fd5b6000600a60008e81526020019081526020016000206040518061018001604052908160008201548152602001600182015481526020016002820160009054906101000a900460ff166003811115610ed857610ed76140ef565b5b6003811115610eea57610ee96140ef565b5b81526020016003820154815260200160048201548152602001600582015481526020016006820160009054906101000a900460ff1615151515815260200160078201548152602001600882015481526020016009820160009054906101000a900473ffffffffffffffffffffffffffffffffffffffff1673ffffffffffffffffffffffffffffffffffffffff1673ffffffffffffffffffffffffffffffffffffffff168152602001600a820160009054906101000a900473ffffffffffffffffffffffffffffffffffffffff1673ffffffffffffffffffffffffffffffffffffffff1673ffffffffffffffffffffffffffffffffffffffff168152602001600b82015481525050905080600001518160e0015182602001518361012001518461014001518561016001518660400151876060015188608001518960a001518a60c001519b509b509b509b509b509b509b509b509b509b509b505091939597999b90929496989a50565b600760009054906101000a900473ffffffffffffffffffffffffffffffffffffffff1673ffffffffffffffffffffffffffffffffffffffff163373ffffffffffffffffffffffffffffffffffffffff16146110e3576040517f08c379a00000000000000000000000000000000000000000000000000000000081526004016110da90614c10565b60405180910390fd5b8060001515600e60008373ffffffffffffffffffffffffffffffffffffffff1673ffffffffffffffffffffffffffffffffffffffff16815260200190815260200160002060009054906101000a900460ff16151514611177576040517f08c379a000000000000000000000000000000000000000000000000000000000815260040161116e90614c7c565b60405180910390fd5b61118082613459565b6001600e60008473ffffffffffffffffffffffffffffffffffffffff1673ffffffffffffffffffffffffffffffffffffffff16815260200190815260200160002060006101000a81548160ff0219169083151502179055505050565b6111e533610dd9565b611224576040517f08c379a000000000000000000000000000000000000000000000000000000000815260040161121b90614869565b60405180910390fd5b8160006003811115611239576112386140ef565b5b600a600083815260200190815260200160002060020160009054906101000a900460ff16600381111561126f5761126e6140ef565b5b14806112c257506001600381111561128a576112896140ef565b5b600a600083815260200190815260200160002060020160009054906101000a900460ff1660038111156112c0576112bf6140ef565b5b145b611301576040517f08c379a00000000000000000000000000000000000000000000000000000000081526004016112f8906148d5565b60405180910390fd5b600a600084815260200190815260200160002060090160009054906101000a900473ffffffffffffffffffffffffffffffffffffffff168073ffffffffffffffffffffffffffffffffffffffff163373ffffffffffffffffffffffffffffffffffffffff16146113a6576040517f08c379a000000000000000000000000000000000000000000000000000000000815260040161139d90614967565b60405180910390fd5b6113af83610dd9565b6113ee576040517f08c379a00000000000000000000000000000000000000000000000000000000081526004016113e590614ce8565b60405180910390fd5b600a600085815260200190815260200160002060060160009054906101000a900460ff1615611452576040517f08c379a000000000000000000000000000000000000000000000000000000000815260040161144990614a3f565b60405180910390fd5b8273ffffffffffffffffffffffffffffffffffffffff16600a600086815260200190815260200160002060090160009054906101000a900473ffffffffffffffffffffffffffffffffffffffff1673ffffffffffffffffffffffffffffffffffffffff1614156114f7576040517f08c379a00000000000000000000000000000000000000000000000000000000081526004016114ee90614d7a565b60405180910390fd5b6001600a600086815260200190815260200160002060020160006101000a81548160ff02191690836003811115611531576115306140ef565b5b021790555082600a600086815260200190815260200160002060090160006101000a81548173ffffffffffffffffffffffffffffffffffffffff021916908373ffffffffffffffffffffffffffffffffffffffff16021790555043600b6000868152602001908152602001600020600101819055507f5fbb53b3049596c696e2c456f5d99660a77260b92718337ace28ede85cb6efb0846040516115d59190614af1565b60405180910390a150505050565b6115ec33610dd9565b61162b576040517f08c379a000000000000000000000000000000000000000000000000000000000815260040161162290614869565b60405180910390fd5b611634336134b3565b6000600e60003373ffffffffffffffffffffffffffffffffffffffff1673ffffffffffffffffffffffffffffffffffffffff16815260200190815260200160002060006101000a81548160ff021916908315150217905550565b60006116a482600161350d90919063ffffffff16565b9050919050565b6116b433611bd6565b6116f3576040517f08c379a00000000000000000000000000000000000000000000000000000000081526004016116ea90614b7e565b60405180910390fd5b8060016002811115611708576117076140ef565b5b600d600083815260200190815260200160002060070160009054906101000a900460ff16600281111561173e5761173d6140ef565b5b1461177e576040517f08c379a000000000000000000000000000000000000000000000000000000000815260040161177590614e0c565b60405180910390fd5b600d600083815260200190815260200160002060008082016000905560018201600090556002820160006117b29190613c74565b6003820160006117c29190613c74565b6004820160009055600582016000905560068201600090556007820160006101000a81549060ff021916905550507ff608cab39d44189914193cf8406a3e72ee612f434d0c212ff29afe739c3f01338260405161181f9190614af1565b60405180910390a15050565b611834336106a5565b611873576040517f08c379a000000000000000000000000000000000000000000000000000000000815260040161186a90614745565b60405180910390fd5b8060026003811115611888576118876140ef565b5b600a600083815260200190815260200160002060020160009054906101000a900460ff1660038111156118be576118bd6140ef565b5b146118fe576040517f08c379a00000000000000000000000000000000000000000000000000000000081526004016118f590614e9e565b60405180910390fd5b600a600083815260200190815260200160002060090160009054906101000a900473ffffffffffffffffffffffffffffffffffffffff168073ffffffffffffffffffffffffffffffffffffffff163373ffffffffffffffffffffffffffffffffffffffff16146119a3576040517f08c379a000000000000000000000000000000000000000000000000000000000815260040161199a90614967565b60405180910390fd5b6003600a600085815260200190815260200160002060020160006101000a81548160ff021916908360038111156119dd576119dc6140ef565b5b02179055506001600a600085815260200190815260200160002060060160006101000a81548160ff0219169083151502179055507fb94ae47ec9f4248692e2ecf9740b67ab493f3dcc8452bedc7d9cd911c28d1ca583604051611a409190614af1565b60405180910390a1505050565b600760009054906101000a900473ffffffffffffffffffffffffffffffffffffffff1673ffffffffffffffffffffffffffffffffffffffff163373ffffffffffffffffffffffffffffffffffffffff1614611add576040517f08c379a0000000000000000000000000000000000000000000000000000000008152600401611ad490614c10565b60405180910390fd5b8060001515600e60008373ffffffffffffffffffffffffffffffffffffffff1673ffffffffffffffffffffffffffffffffffffffff16815260200190815260200160002060009054906101000a900460ff16151514611b71576040517f08c379a0000000000000000000000000000000000000000000000000000000008152600401611b6890614c7c565b60405180910390fd5b611b7a826135d5565b6001600e60008473ffffffffffffffffffffffffffffffffffffffff1673ffffffffffffffffffffffffffffffffffffffff16815260200190815260200160002060006101000a81548160ff0219169083151502179055505050565b6000611bec82600161333790919063ffffffff16565b9050919050565b6000611c0982600361350d90919063ffffffff16565b9050919050565b611c1933610dd9565b611c58576040517f08c379a0000000000000000000000000000000000000000000000000000000008152600401611c4f90614869565b60405180910390fd5b611c6c81600361362f90919063ffffffff16565b8073ffffffffffffffffffffffffffffffffffffffff167f1e8c87d3279b070b3919569f766990edf723b97ac9136fde120308383e540e9760405160405180910390a250565b611cbb33611bd6565b611cfa576040517f08c379a0000000000000000000000000000000000000000000000000000000008152600401611cf190614b7e565b60405180910390fd5b611d0e81600161362f90919063ffffffff16565b8073ffffffffffffffffffffffffffffffffffffffff167f1a6b4f47c444adaee6c1bf91c5854819261fd69eb23681a222aabffb3b2bedd160405160405180910390a250565b60008060009054906101000a900473ffffffffffffffffffffffffffffffffffffffff1673ffffffffffffffffffffffffffffffffffffffff163373ffffffffffffffffffffffffffffffffffffffff1614905090565b600760009054906101000a900473ffffffffffffffffffffffffffffffffffffffff1673ffffffffffffffffffffffffffffffffffffffff163373ffffffffffffffffffffffffffffffffffffffff1614611e3b576040517f08c379a0000000000000000000000000000000000000000000000000000000008152600401611e3290614c10565b60405180910390fd5b8060001515600e60008373ffffffffffffffffffffffffffffffffffffffff1673ffffffffffffffffffffffffffffffffffffffff16815260200190815260200160002060009054906101000a900460ff16151514611ecf576040517f08c379a0000000000000000000000000000000000000000000000000000000008152600401611ec690614c7c565b60405180910390fd5b611ed8826136fd565b6001600e60008473ffffffffffffffffffffffffffffffffffffffff1673ffffffffffffffffffffffffffffffffffffffff16815260200190815260200160002060006101000a81548160ff0219169083151502179055505050565b611f3d33610dd9565b611f7c576040517f08c379a0000000000000000000000000000000000000000000000000000000008152600401611f7390614869565b60405180910390fd5b611f9081600361375790919063ffffffff16565b8073ffffffffffffffffffffffffffffffffffffffff167f0667e0830315d6e5828b15e6810dad39c52ecb325ba2c6af85c0e58d4b5dec6c60405160405180910390a250565b611fdf33611bd6565b61201e576040517f08c379a000000000000000000000000000000000000000000000000000000000815260040161201590614b7e565b60405180910390fd5b61203281600161375790919063ffffffff16565b8073ffffffffffffffffffffffffffffffffffffffff167fe6519cb797d40f13112e034ddabb3d2920df5ea81735cf37b11b1d4cfed66c3860405160405180910390a250565b61208133611bd6565b6120c0576040517f08c379a00000000000000000000000000000000000000000000000000000000081526004016120b790614b7e565b60405180910390fd5b80600c600082815260200190815260200160002060020160149054906101000a900460ff16612124576040517f08c379a000000000000000000000000000000000000000000000000000000000815260040161211b90614f30565b60405180910390fd5b84600280811115612138576121376140ef565b5b600d600083815260200190815260200160002060070160009054906101000a900460ff16600281111561216e5761216d6140ef565b5b146121ae576040517f08c379a00000000000000000000000000000000000000000000000000000000081526004016121a590614fc2565b60405180910390fd5b856000600a60008381526020019081526020016000206000015414612208576040517f08c379a00000000000000000000000000000000000000000000000000000000081526004016121ff9061502e565b60405180910390fd5b612210613cb4565b6008548861221e919061507d565b8160000181815250506008548160e001818152505060008160400190600381111561224c5761224b6140ef565b5b908160038111156122605761225f6140ef565b5b81525050600c600086815260200190815260200160002060010160009054906101000a900473ffffffffffffffffffffffffffffffffffffffff1681610140019073ffffffffffffffffffffffffffffffffffffffff16908173ffffffffffffffffffffffffffffffffffffffff1681525050600c600086815260200190815260200160002060020160009054906101000a900473ffffffffffffffffffffffffffffffffffffffff1681610120019073ffffffffffffffffffffffffffffffffffffffff16908173ffffffffffffffffffffffffffffffffffffffff16815250508581608001818152505086816060018181525050428160a001818152505060008160c0019015159081151581525050600d600089815260200190815260200160002060000154816020018181525050848161016001818152505080600a60008a8152602001908152602001600020600082015181600001556020820151816001015560408201518160020160006101000a81548160ff021916908360038111156123ef576123ee6140ef565b5b0217905550606082015181600301556080820151816004015560a0820151816005015560c08201518160060160006101000a81548160ff02191690831515021790555060e0820151816007015561010082015181600801556101208201518160090160006101000a81548173ffffffffffffffffffffffffffffffffffffffff021916908373ffffffffffffffffffffffffffffffffffffffff16021790555061014082015181600a0160006101000a81548173ffffffffffffffffffffffffffffffffffffffff021916908373ffffffffffffffffffffffffffffffffffffffff16021790555061016082015181600b015590505060006124ef613d58565b43816000018181525050818160200181815250508181604001818152505080600b60008c81526020019081526020016000206000820151816000015560208201518160010155604082015181600201559050506001600854612551919061507d565b6008819055507f06acbfb32bcf8383f3b0a768b70ac9ec234ea0f2d3b9c77fa6a2de69b919aad18a6040516125869190614af1565b60405180910390a150505050505050505050565b6125a333611bd6565b6125e2576040517f08c379a00000000000000000000000000000000000000000000000000000000081526004016125d990614b7e565b60405180910390fd5b80600160028111156125f7576125f66140ef565b5b600d600083815260200190815260200160002060070160009054906101000a900460ff16600281111561262d5761262c6140ef565b5b1461266d576040517f08c379a000000000000000000000000000000000000000000000000000000000815260040161266490614e0c565b60405180910390fd5b6002600d600084815260200190815260200160002060070160006101000a81548160ff021916908360028111156126a7576126a66140ef565b5b02179055507fe36273972f3e59b6ded36fe363ac46a309f17660a9d03b72b89f8757276085a0826040516126db9190614af1565b60405180910390a15050565b6126f033610dd9565b61272f576040517f08c379a000000000000000000000000000000000000000000000000000000000815260040161272690614869565b60405180910390fd5b80600c600082815260200190815260200160002060020160149054906101000a900460ff16612793576040517f08c379a000000000000000000000000000000000000000000000000000000000815260040161278a90614f30565b60405180910390fd5b6127d2600c600084815260200190815260200160002060010160009054906101000a900473ffffffffffffffffffffffffffffffffffffffff16611cb2565b612811600c600084815260200190815260200160002060020160009054906101000a900473ffffffffffffffffffffffffffffffffffffffff16611c10565b600c60008381526020019081526020016000206000808201600090556001820160006101000a81549073ffffffffffffffffffffffffffffffffffffffff02191690556002820160006101000a81549073ffffffffffffffffffffffffffffffffffffffff02191690556002820160146101000a81549060ff021916905550507fb6ebe4790561a614a24bc7e2e1d6df51294bbe8bd65437101a92a2440705991d826040516128c09190614af1565b60405180910390a15050565b6128d4611d54565b612913576040517f08c379a000000000000000000000000000000000000000000000000000000000815260040161290a90615145565b60405180910390fd5b600073ffffffffffffffffffffffffffffffffffffffff1660008054906101000a900473ffffffffffffffffffffffffffffffffffffffff1673ffffffffffffffffffffffffffffffffffffffff167f5c486528ec3e3f0ea91181cff8116f02bfa350e03b8b6f12e00765adbb5af85c60405160405180910390a360008060006101000a81548173ffffffffffffffffffffffffffffffffffffffff021916908373ffffffffffffffffffffffffffffffffffffffff160217905550565b60008060009054906101000a900473ffffffffffffffffffffffffffffffffffffffff16905090565b600080606080600080600080612a0e611d54565b80612a1e5750612a1d33610dd9565b5b80612a2e5750612a2d336106a5565b5b80612a3e5750612a3d33611bd6565b5b612a7d576040517f08c379a0000000000000000000000000000000000000000000000000000000008152600401612a74906147d7565b60405180910390fd5b6000600d60008b8152602001908152602001600020604051806101000160405290816000820154815260200160018201548152602001600282018054612ac290615194565b80601f0160208091040260200160405190810160405280929190818152602001828054612aee90615194565b8015612b3b5780601f10612b1057610100808354040283529160200191612b3b565b820191906000526020600020905b815481529060010190602001808311612b1e57829003601f168201915b50505050508152602001600382018054612b5490615194565b80601f0160208091040260200160405190810160405280929190818152602001828054612b8090615194565b8015612bcd5780601f10612ba257610100808354040283529160200191612bcd565b820191906000526020600020905b815481529060010190602001808311612bb057829003601f168201915b505050505081526020016004820154815260200160058201548152602001600682015481526020016007820160009054906101000a900460ff166002811115612c1957612c186140ef565b5b6002811115612c2b57612c2a6140ef565b5b815250509050806000015181602001518260400151836060015184608001518560a001518660c001518760e001519850985098509850985098509850985050919395975091939597565b612c7d611d54565b612cbc576040517f08c379a0000000000000000000000000000000000000000000000000000000008152600401612cb390615145565b60405180910390fd5b612cc581613825565b50565b600760009054906101000a900473ffffffffffffffffffffffffffffffffffffffff1673ffffffffffffffffffffffffffffffffffffffff163373ffffffffffffffffffffffffffffffffffffffff1614612d58576040517f08c379a0000000000000000000000000000000000000000000000000000000008152600401612d4f90614c10565b60405180910390fd5b80612d6281610dd9565b612da1576040517f08c379a0000000000000000000000000000000000000000000000000000000008152600401612d9890615238565b60405180910390fd5b82612dab81611bd6565b612dea576040517f08c379a0000000000000000000000000000000000000000000000000000000008152600401612de1906152ca565b60405180910390fd5b612df38461168e565b612e32576040517f08c379a0000000000000000000000000000000000000000000000000000000008152600401612e2990615336565b60405180910390fd5b612e3b83611bf3565b612e7a576040517f08c379a0000000000000000000000000000000000000000000000000000000008152600401612e7190615336565b60405180910390fd5b60001515600c600087815260200190815260200160002060020160149054906101000a900460ff16151514612ee4576040517f08c379a0000000000000000000000000000000000000000000000000000000008152600401612edb906153a2565b60405180910390fd5b612eef858585613952565b5050505050565b612eff33610dd9565b612f3e576040517f08c379a0000000000000000000000000000000000000000000000000000000008152600401612f3590614869565b60405180910390fd5b8660006002811115612f5357612f526140ef565b5b600d600083815260200190815260200160002060070160009054906101000a900460ff166002811115612f8957612f886140ef565b5b14612fc9576040517f08c379a0000000000000000000000000000000000000000000000000000000008152600401612fc09061540e565b60405180910390fd5b612fd1613d79565b8781602001818152505086816040018190525085816060018190525084816080018181525050838160a0018181525050828160c001818152505060018160e001906002811115613024576130236140ef565b5b90816002811115613038576130376140ef565b5b81525050878787878787604051602001613057969594939291906154cd565b6040516020818303038152906040528051906020012081600001818152505080600d60008b8152602001908152602001600020600082015181600001556020820151816001015560408201518160020190805190602001906130ba929190613dd9565b5060608201518160030190805190602001906130d7929190613dd9565b506080820151816004015560a0820151816005015560c0820151816006015560e08201518160070160006101000a81548160ff02191690836002811115613121576131206140ef565b5b02179055509050507f3727918ef2c1dad4800aa3dd8fb8c77ee9e702642471cec1139dde76649f826f896040516131589190614af1565b60405180910390a1505050505050505050565b600073ffffffffffffffffffffffffffffffffffffffff168173ffffffffffffffffffffffffffffffffffffffff1614156131db576040517f08c379a00000000000000000000000000000000000000000000000000000000081526004016131d2906155a7565b60405180910390fd5b6131e58282613337565b15613225576040517f08c379a000000000000000000000000000000000000000000000000000000000815260040161321c90615639565b60405180910390fd5b60018260000160008373ffffffffffffffffffffffffffffffffffffffff1673ffffffffffffffffffffffffffffffffffffffff16815260200190815260200160002060006101000a81548160ff02191690831515021790555060018260010160008373ffffffffffffffffffffffffffffffffffffffff1673ffffffffffffffffffffffffffffffffffffffff16815260200190815260200160002060006101000a81548160ff0219169083151502179055505050565b6132f1816005613b0390919063ffffffff16565b8073ffffffffffffffffffffffffffffffffffffffff167f175bbf7c8885232a7cc78a8d1cee0f28821bd705b791892af4b94aa45defaaa760405160405180910390a250565b60008073ffffffffffffffffffffffffffffffffffffffff168273ffffffffffffffffffffffffffffffffffffffff1614156133a8576040517f08c379a000000000000000000000000000000000000000000000000000000000815260040161339f906156a5565b60405180910390fd5b8260000160008373ffffffffffffffffffffffffffffffffffffffff1673ffffffffffffffffffffffffffffffffffffffff16815260200190815260200160002060009054906101000a900460ff16905092915050565b613413816001613b0390919063ffffffff16565b8073ffffffffffffffffffffffffffffffffffffffff167fe522b87acd91c0ddd687ad5a469acffe69b08b5809ed528b823949a291e5181660405160405180910390a250565b61346d81600561316b90919063ffffffff16565b8073ffffffffffffffffffffffffffffffffffffffff167fb356241f4c9415a59716f1506d9a7d7f97eca0b3b99b43f050a73965017093e560405160405180910390a250565b6134c7816003613b0390919063ffffffff16565b8073ffffffffffffffffffffffffffffffffffffffff167f513d28b9cb80e939de26a9e93ec7ebabe8d512a7225fee59ed00fa03ca7c74a160405160405180910390a250565b60008073ffffffffffffffffffffffffffffffffffffffff168273ffffffffffffffffffffffffffffffffffffffff16141561357e576040517f08c379a000000000000000000000000000000000000000000000000000000000815260040161357590615711565b60405180910390fd5b8260010160008373ffffffffffffffffffffffffffffffffffffffff1673ffffffffffffffffffffffffffffffffffffffff16815260200190815260200160002060009054906101000a900460ff16905092915050565b6135e981600361316b90919063ffffffff16565b8073ffffffffffffffffffffffffffffffffffffffff167fc4c92e1239d509971246356ff7063b7f209ee3f0f8d13333b9e6859ce6d32f6060405160405180910390a250565b600073ffffffffffffffffffffffffffffffffffffffff168173ffffffffffffffffffffffffffffffffffffffff16141561369f576040517f08c379a00000000000000000000000000000000000000000000000000000000081526004016136969061577d565b60405180910390fd5b60018260010160008373ffffffffffffffffffffffffffffffffffffffff1673ffffffffffffffffffffffffffffffffffffffff16815260200190815260200160002060006101000a81548160ff0219169083151502179055505050565b61371181600161316b90919063ffffffff16565b8073ffffffffffffffffffffffffffffffffffffffff167f62cb02f3de5017db2b7d0bffac1845be0b5034dc8dbde6e56dd561e2b22446c260405160405180910390a250565b600073ffffffffffffffffffffffffffffffffffffffff168173ffffffffffffffffffffffffffffffffffffffff1614156137c7576040517f08c379a00000000000000000000000000000000000000000000000000000000081526004016137be906157e9565b60405180910390fd5b60008260010160008373ffffffffffffffffffffffffffffffffffffffff1673ffffffffffffffffffffffffffffffffffffffff16815260200190815260200160002060006101000a81548160ff0219169083151502179055505050565b600073ffffffffffffffffffffffffffffffffffffffff168173ffffffffffffffffffffffffffffffffffffffff161415613895576040517f08c379a000000000000000000000000000000000000000000000000000000000815260040161388c9061587b565b60405180910390fd5b8073ffffffffffffffffffffffffffffffffffffffff1660008054906101000a900473ffffffffffffffffffffffffffffffffffffffff1673ffffffffffffffffffffffffffffffffffffffff167f5c486528ec3e3f0ea91181cff8116f02bfa350e03b8b6f12e00765adbb5af85c60405160405180910390a3806000806101000a81548173ffffffffffffffffffffffffffffffffffffffff021916908373ffffffffffffffffffffffffffffffffffffffff16021790555050565b61395a613e5f565b8381600001818152505082816020019073ffffffffffffffffffffffffffffffffffffffff16908173ffffffffffffffffffffffffffffffffffffffff168152505081816040019073ffffffffffffffffffffffffffffffffffffffff16908173ffffffffffffffffffffffffffffffffffffffff1681525050600181606001901515908115158152505080600c60008681526020019081526020016000206000820151816000015560208201518160010160006101000a81548173ffffffffffffffffffffffffffffffffffffffff021916908373ffffffffffffffffffffffffffffffffffffffff16021790555060408201518160020160006101000a81548173ffffffffffffffffffffffffffffffffffffffff021916908373ffffffffffffffffffffffffffffffffffffffff16021790555060608201518160020160146101000a81548160ff021916908315150217905550905050613abd83611fd6565b613ac682611f34565b7fd7ce4cdcda72be223b65e058b88ddde69a48d17d8f50d74f19e118f2299bd44684604051613af59190614af1565b60405180910390a150505050565b600073ffffffffffffffffffffffffffffffffffffffff168173ffffffffffffffffffffffffffffffffffffffff161415613b73576040517f08c379a0000000000000000000000000000000000000000000000000000000008152600401613b6a9061590d565b60405180910390fd5b613b7d8282613337565b613bbc576040517f08c379a0000000000000000000000000000000000000000000000000000000008152600401613bb39061599f565b60405180910390fd5b60008260000160008373ffffffffffffffffffffffffffffffffffffffff1673ffffffffffffffffffffffffffffffffffffffff16815260200190815260200160002060006101000a81548160ff02191690831515021790555060008260010160008373ffffffffffffffffffffffffffffffffffffffff1673ffffffffffffffffffffffffffffffffffffffff16815260200190815260200160002060006101000a81548160ff0219169083151502179055505050565b508054613c8090615194565b6000825580601f10613c925750613cb1565b601f016020900490600052602060002090810190613cb09190613eb5565b5b50565b604051806101800160405280600081526020016000801916815260200160006003811115613ce557613ce46140ef565b5b81526020016000815260200160008152602001600081526020016000151581526020016000815260200160008152602001600073ffffffffffffffffffffffffffffffffffffffff168152602001600073ffffffffffffffffffffffffffffffffffffffff168152602001600081525090565b60405180606001604052806000815260200160008152602001600081525090565b6040518061010001604052806000801916815260200160008152602001606081526020016060815260200160008019168152602001600080191681526020016000815260200160006002811115613dd357613dd26140ef565b5b81525090565b828054613de590615194565b90600052602060002090601f016020900481019282613e075760008555613e4e565b82601f10613e2057805160ff1916838001178555613e4e565b82800160010185558215613e4e579182015b82811115613e4d578251825591602001919060010190613e32565b5b509050613e5b9190613eb5565b5090565b604051806080016040528060008152602001600073ffffffffffffffffffffffffffffffffffffffff168152602001600073ffffffffffffffffffffffffffffffffffffffff1681526020016000151581525090565b5b80821115613ece576000816000905550600101613eb6565b5090565b6000604051905090565b600080fd5b600080fd5b600073ffffffffffffffffffffffffffffffffffffffff82169050919050565b6000613f1182613ee6565b9050919050565b613f2181613f06565b8114613f2c57600080fd5b50565b600081359050613f3e81613f18565b92915050565b600060208284031215613f5a57613f59613edc565b5b6000613f6884828501613f2f565b91505092915050565b60008115159050919050565b613f8681613f71565b82525050565b6000602082019050613fa16000830184613f7d565b92915050565b6000819050919050565b613fba81613fa7565b8114613fc557600080fd5b50565b600081359050613fd781613fb1565b92915050565b600060208284031215613ff357613ff2613edc565b5b600061400184828501613fc8565b91505092915050565b61401381613f06565b82525050565b600060608201905061402e600083018661400a565b61403b602083018561400a565b6140486040830184613f7d565b949350505050565b61405981613fa7565b82525050565b60006060820190506140746000830186614050565b6140816020830185614050565b61408e6040830184614050565b949350505050565b600080604083850312156140ad576140ac613edc565b5b60006140bb85828601613fc8565b92505060206140cc85828601613f2f565b9150509250929050565b6000819050919050565b6140e9816140d6565b82525050565b7f4e487b7100000000000000000000000000000000000000000000000000000000600052602160045260246000fd5b6004811061412f5761412e6140ef565b5b50565b60008190506141408261411e565b919050565b600061415082614132565b9050919050565b61416081614145565b82525050565b6000819050919050565b61417981614166565b82525050565b600061016082019050614195600083018e614050565b6141a2602083018d614050565b6141af604083018c6140e0565b6141bc606083018b61400a565b6141c9608083018a61400a565b6141d660a0830189614050565b6141e360c0830188614157565b6141f060e0830187614170565b6141fe610100830186614170565b61420c610120830185614050565b61421a610140830184613f7d565b9c9b505050505050505050505050565b61423381614166565b811461423e57600080fd5b50565b6000813590506142508161422a565b92915050565b600080600080608085870312156142705761426f613edc565b5b600061427e87828801613fc8565b945050602061428f87828801614241565b93505060406142a087828801614241565b92505060606142b187828801613fc8565b91505092959194509250565b60006020820190506142d2600083018461400a565b92915050565b600081519050919050565b600082825260208201905092915050565b60005b838110156143125780820151818401526020810190506142f7565b83811115614321576000848401525b50505050565b6000601f19601f8301169050919050565b6000614343826142d8565b61434d81856142e3565b935061435d8185602086016142f4565b61436681614327565b840191505092915050565b60038110614382576143816140ef565b5b50565b600081905061439382614371565b919050565b60006143a382614385565b9050919050565b6143b381614398565b82525050565b6000610100820190506143cf600083018b6140e0565b6143dc602083018a614050565b81810360408301526143ee8189614338565b905081810360608301526144028188614338565b905061441160808301876140e0565b61441e60a08301866140e0565b61442b60c0830185614170565b61443860e08301846143aa565b9998505050505050505050565b60008060006060848603121561445e5761445d613edc565b5b600061446c86828701613fc8565b935050602061447d86828701613f2f565b925050604061448e86828701613f2f565b9150509250925092565b600080fd5b600080fd5b7f4e487b7100000000000000000000000000000000000000000000000000000000600052604160045260246000fd5b6144da82614327565b810181811067ffffffffffffffff821117156144f9576144f86144a2565b5b80604052505050565b600061450c613ed2565b905061451882826144d1565b919050565b600067ffffffffffffffff821115614538576145376144a2565b5b61454182614327565b9050602081019050919050565b82818337600083830152505050565b600061457061456b8461451d565b614502565b90508281526020810184848401111561458c5761458b61449d565b5b61459784828561454e565b509392505050565b600082601f8301126145b4576145b3614498565b5b81356145c484826020860161455d565b91505092915050565b6145d6816140d6565b81146145e157600080fd5b50565b6000813590506145f3816145cd565b92915050565b600080600080600080600060e0888a03121561461857614617613edc565b5b60006146268a828b01613fc8565b97505060206146378a828b01613fc8565b965050604088013567ffffffffffffffff81111561465857614657613ee1565b5b6146648a828b0161459f565b955050606088013567ffffffffffffffff81111561468557614684613ee1565b5b6146918a828b0161459f565b94505060806146a28a828b016145e4565b93505060a06146b38a828b016145e4565b92505060c06146c48a828b01614241565b91505092959891949750929550565b7f4572726f723a204f6e6c79206669656c64206d616e616765722069732061757460008201527f686f726973656420746f206d616b65207468697320616374696f6e0000000000602082015250565b600061472f603b836142e3565b915061473a826146d3565b604082019050919050565b6000602082019050818103600083015261475e81614722565b9050919050565b7f4f6e6c792061726d79207061727469636970616e74732061726520617574686f60008201527f726973656420746f206d616b65207468697320616374696f6e00000000000000602082015250565b60006147c16039836142e3565b91506147cc82614765565b604082019050919050565b600060208201905081810360008301526147f0816147b4565b9050919050565b7f4572726f723a204f6e6c79206465706f74206d616e616765722069732061757460008201527f686f726973656420746f206d616b65207468697320616374696f6e0000000000602082015250565b6000614853603b836142e3565b915061485e826147f7565b604082019050919050565b6000602082019050818103600083015261488281614846565b9050919050565b7f4572726f722c20746865207061727420646f65736e2774206578697374210000600082015250565b60006148bf601e836142e3565b91506148ca82614889565b602082019050919050565b600060208201905081810360008301526148ee816148b2565b9050919050565b7f537570706c79436861696e3a3a76657269667943616c6c6572202d205468652060008201527f63616c6c6572206973206e6f7420746865206f6e6520737570706f7365640000602082015250565b6000614951603e836142e3565b915061495c826148f5565b604082019050919050565b6000602082019050818103600083015261498081614944565b9050919050565b7f57726f6e67206164647265737320666f72204669656c64204d616e6167657200600082015250565b60006149bd601f836142e3565b91506149c882614987565b602082019050919050565b600060208201905081810360008301526149ec816149b0565b9050919050565b7f546865207061727420697320616c7265616479206465706c6f79656400000000600082015250565b6000614a29601c836142e3565b9150614a34826149f3565b602082019050919050565b60006020820190508181036000830152614a5881614a1c565b9050919050565b7f546865207061727420697320616c726561647920696e2074686973206669656c60008201527f6400000000000000000000000000000000000000000000000000000000000000602082015250565b6000614abb6021836142e3565b9150614ac682614a5f565b604082019050919050565b60006020820190508181036000830152614aea81614aae565b9050919050565b6000602082019050614b066000830184614050565b92915050565b7f4572726f723a204f6e6c79206f70657261746f7220697320617574686f72697360008201527f656420746f206d616b65207468697320616374696f6e00000000000000000000602082015250565b6000614b686036836142e3565b9150614b7382614b0c565b604082019050919050565b60006020820190508181036000830152614b9781614b5b565b9050919050565b7f4f6e6c792074686520636f6e7472616374206f776e657220697320617574686f60008201527f726973656420746f2074616b65207468697320616374696f6e00000000000000602082015250565b6000614bfa6039836142e3565b9150614c0582614b9e565b604082019050919050565b60006020820190508181036000830152614c2981614bed565b9050919050565b7f4572726f722c206164647265737320616c726561647920696e20757365000000600082015250565b6000614c66601d836142e3565b9150614c7182614c30565b602082019050919050565b60006020820190508181036000830152614c9581614c59565b9050919050565b7f57726f6e672061646472657373206f66204465706f74204d616e616765720000600082015250565b6000614cd2601e836142e3565b9150614cdd82614c9c565b602082019050919050565b60006020820190508181036000830152614d0181614cc5565b9050919050565b7f546865207061727420697320616c726561647920696e2074686973206465706f60008201527f7400000000000000000000000000000000000000000000000000000000000000602082015250565b6000614d646021836142e3565b9150614d6f82614d08565b604082019050919050565b60006020820190508181036000830152614d9381614d57565b9050919050565b7f4572726f722c2070617274206973206e6f7420726571756573746564206f722060008201527f697320616c72726561647920617070726f766564000000000000000000000000602082015250565b6000614df66034836142e3565b9150614e0182614d9a565b604082019050919050565b60006020820190508181036000830152614e2581614de9565b9050919050565b7f4572726f722c207468652070617274206861736e27742072656163686564207460008201527f6865206669656c64207965742100000000000000000000000000000000000000602082015250565b6000614e88602d836142e3565b9150614e9382614e2c565b604082019050919050565b60006020820190508181036000830152614eb781614e7b565b9050919050565b7f4572726f722c207468657265206973206e6f204465706f74207769746820746860008201527f617420496420696e206f7572206e6574776f726b000000000000000000000000602082015250565b6000614f1a6034836142e3565b9150614f2582614ebe565b604082019050919050565b60006020820190508181036000830152614f4981614f0d565b9050919050565b7f4572726f722c2070617274206973206e6f7420617070726f76656420666f722060008201527f70726f64756374696f6e00000000000000000000000000000000000000000000602082015250565b6000614fac602a836142e3565b9150614fb782614f50565b604082019050919050565b60006020820190508181036000830152614fdb81614f9f565b9050919050565b7f5061727420697320616c72656164792063726561746564000000000000000000600082015250565b60006150186017836142e3565b915061502382614fe2565b602082019050919050565b600060208201905081810360008301526150478161500b565b9050919050565b7f4e487b7100000000000000000000000000000000000000000000000000000000600052601160045260246000fd5b600061508882613fa7565b915061509383613fa7565b9250827fffffffffffffffffffffffffffffffffffffffffffffffffffffffffffffffff038211156150c8576150c761504e565b5b828201905092915050565b7f4572726f7220696e206f776e6572736869702e736f6c2c206f6e6c794f776e6560008201527f7228290000000000000000000000000000000000000000000000000000000000602082015250565b600061512f6023836142e3565b915061513a826150d3565b604082019050919050565b6000602082019050818103600083015261515e81615122565b9050919050565b7f4e487b7100000000000000000000000000000000000000000000000000000000600052602260045260246000fd5b600060028204905060018216806151ac57607f821691505b602082108114156151c0576151bf615165565b5b50919050565b7f4572726f722c2074686973206164647265737320646f65736e27742062656c6f60008201527f6e6720746f2061204465706f74204d616e616765720000000000000000000000602082015250565b60006152226035836142e3565b915061522d826151c6565b604082019050919050565b6000602082019050818103600083015261525181615215565b9050919050565b7f4572726f722c2074686973206164647265737320646f65736e27742062656c6f60008201527f6e6720746f20616e204f70657261746f72000000000000000000000000000000602082015250565b60006152b46031836142e3565b91506152bf82615258565b604082019050919050565b600060208201905081810360008301526152e3816152a7565b9050919050565b7f4f70657261746f72204e2f410000000000000000000000000000000000000000600082015250565b6000615320600c836142e3565b915061532b826152ea565b602082019050919050565b6000602082019050818103600083015261534f81615313565b9050919050565b7f4465706f7420616c726561647920637265617465640000000000000000000000600082015250565b600061538c6015836142e3565b915061539782615356565b602082019050919050565b600060208201905081810360008301526153bb8161537f565b9050919050565b7f5061727420616c72656164792072657175657374656400000000000000000000600082015250565b60006153f86016836142e3565b9150615403826153c2565b602082019050919050565b60006020820190508181036000830152615427816153eb565b9050919050565b6000819050919050565b61544961544482613fa7565b61542e565b82525050565b600081905092915050565b6000615465826142d8565b61546f818561544f565b935061547f8185602086016142f4565b80840191505092915050565b6000819050919050565b6154a66154a1826140d6565b61548b565b82525050565b6000819050919050565b6154c76154c282614166565b6154ac565b82525050565b60006154d98289615438565b6020820191506154e9828861545a565b91506154f5828761545a565b91506155018286615495565b6020820191506155118285615495565b60208201915061552182846154b6565b602082019150819050979650505050505050565b7f4572726f7220696e20526f6c65732e736f6c2c2061646428292066697273742060008201527f726571756972656d656e74000000000000000000000000000000000000000000602082015250565b6000615591602b836142e3565b915061559c82615535565b604082019050919050565b600060208201905081810360008301526155c081615584565b9050919050565b7f4572726f7220696e20526f6c65732e736f6c2c206164642829207365636f6e6460008201527f20726571756972656d656e740000000000000000000000000000000000000000602082015250565b6000615623602c836142e3565b915061562e826155c7565b604082019050919050565b6000602082019050818103600083015261565281615616565b9050919050565b7f4572726f7220696e20526f6c65732e736f6c2c206f776e732829000000000000600082015250565b600061568f601a836142e3565b915061569a82615659565b602082019050919050565b600060208201905081810360008301526156be81615682565b9050919050565b7f4572726f7220696e20526f6c65732e736f6c2c20697346726565282900000000600082015250565b60006156fb601c836142e3565b9150615706826156c5565b602082019050919050565b6000602082019050818103600083015261572a816156ee565b9050919050565b7f4572726f7220696e20526f6c65732e736f6c2c206d616b654672656528290000600082015250565b6000615767601e836142e3565b915061577282615731565b602082019050919050565b600060208201905081810360008301526157968161575a565b9050919050565b7f4572726f7220696e20526f6c65732e736f6c2c206d616b6554616b656e282900600082015250565b60006157d3601f836142e3565b91506157de8261579d565b602082019050919050565b60006020820190508181036000830152615802816157c6565b9050919050565b7f4572726f7220696e206f776e6572736869702e736f6c2c207472616e7366657260008201527f4f776e6572736869702829000000000000000000000000000000000000000000602082015250565b6000615865602b836142e3565b915061587082615809565b604082019050919050565b6000602082019050818103600083015261589481615858565b9050919050565b7f4572726f7220696e20526f6c65732e736f6c2c2072656d6f766528292066697260008201527f7374207265710000000000000000000000000000000000000000000000000000602082015250565b60006158f76026836142e3565b91506159028261589b565b604082019050919050565b60006020820190508181036000830152615926816158ea565b9050919050565b7f4572726f7220696e20526f6c65732e736f6c2c2072656d6f766528292073656360008201527f6f6e642072657100000000000000000000000000000000000000000000000000602082015250565b60006159896027836142e3565b91506159948261592d565b604082019050919050565b600060208201905081810360008301526159b88161597c565b905091905056fea26469706673582212206bd6aad4f59b1b3d8a751ad747c4ce9f7f330098b06f15eeed24836ce1e680c564736f6c634300080b0033",
  "immutableReferences": {},
  "source": "// SPDX-License-Identifier: MIT\r\n\r\n/* \r\nNOTES FOR FUTURE DEVELOPMENT:\r\n1: Part is created by operator and contract owner?\r\n\r\n*/\r\npragma solidity ^0.8.0;\r\n\r\n//import \"./Printer.sol\";\r\nimport \"./AccessControl/Operator.sol\";\r\nimport \"./AccessControl/ManagerDepot.sol\";\r\nimport \"./AccessControl/ManagerField.sol\";\r\nimport \"./Ownership.sol\";\r\n\r\ncontract SupplyChain is Ownership, Operator, ManagerDepot, ManagerField {\r\n    address owner;      //Contract owner\r\n    uint stock;         //Current stock of units in the SC\r\n    uint upc;           //Universal Product Code . stock and UPC will make the product's id\r\n    \r\n    mapping (uint => Part) parts;                   // List of part in the MSCN   \r\n    mapping (uint => TxBlock) partsHistory;       // Tracks the parts' history thorugh the supply chain\r\n    mapping (uint => Depot) depots;                   // List of depots and their Operators/Managers\r\n    mapping (uint => Printer) printers;\r\n    mapping (address => bool) addressInUse;\r\n\r\n    //mapping (uint => PrinterStage) orders;\r\n    \r\n    enum PrinterStage {NotRequested, WaitingApproval, Approved}\r\n\r\n    struct Printer {\r\n        bytes32 printerId; \r\n        uint layer_thickness;\r\n        string fill_pattern; \r\n        string orientation; \r\n        bytes32 stl; \r\n        bytes32 cad; \r\n        int temp;\r\n        PrinterStage pStage;\r\n    }\r\n\r\n    struct Part {\r\n        uint id;                // Part's unique id\r\n        bytes32 printerId;         // Id of the printer that created the part \r\n        State state;            // The state of the part in the supply chain\r\n        int lon;                // Longitude of the part's creation\r\n        int lat;                // Latitude of the part's creation\r\n        uint timestamp;         // Time of the part's creation\r\n        bool deployed;          // Is the part deployed? Upon creation set to false\r\n        uint stock;             // Stock keepign units\r\n        uint upc;               // Universal Product Code being give by the printer upon creation\r\n       \r\n        address partOwner;      // The address of the part's current owner\r\n        address partOperator;   // The adderss of the part's creator (it's always an operator)\r\n        uint    creationDepotId; // The depot that created the part\r\n\r\n        /*\r\n        bytes32 cad;        // Hashed value of the CAD file used for the creation of part\r\n        bytes32 stl;        // Hashed value of the STL file used for the creation of part\r\n        */\r\n\r\n    }\r\n\r\n    struct Depot {\r\n        uint depotId;               // The depot's identification number\r\n        address depotOperator;      // The depot's operator\r\n        address depotManager;       // The depot's manager\r\n      //  bytes32 depotPrinter;          // The depot's printer\r\n        bool isDCreated;               // Keep the status of the Depot\r\n    }\r\n\r\n    /* Supply Chain States */\r\n    enum State {\r\n        Created,                //0\r\n        ShippedToDepot,         //1\r\n        ShippedToField,         //2 \r\n        Deployed                //3\r\n    }\r\n\r\n    struct TxBlock {\r\n        uint CR;    //Creation Block    \r\n        uint DTD;   //Depot to Depot block\r\n        uint DTF;   //Depot to Field block\r\n    }\r\n    \r\n\r\n    //State constant defaultState = State.CreatedByPrinter;\r\n    \r\n\r\n    event RequestedPart(uint _upc);\r\n    event ApprovedPart(uint _upc);\r\n    event DepotCreated(uint depotId);\r\n    event DepotDeleted(uint depotId);\r\n    event DiscardedPart(uint upc);\r\n    event Created(uint upc);\r\n    event StoredAtDepot(uint upc);\r\n    event ShippedToDepot(uint upc);\r\n    event ShippedToField(uint upc);\r\n    event Deployed(uint upc);\r\n    event LogNewAlert(address description);\r\n\r\n\r\n\r\n    /*\r\n    Modifiers for checking ownership\r\n    */\r\n    modifier allowOnlyOwner() {\r\n        require(msg.sender == owner, \"Only the contract owner is authorised to take this action\");\r\n        _;\r\n    }\r\n\r\n    \r\n     modifier verifyCaller (address _address) {\r\n        require(msg.sender == _address, \"SupplyChain::verifyCaller - The caller is not the one supposed\" );\r\n        _;\r\n    }\r\n\r\n    /* Modifier for checking that a part is created  */\r\n    modifier isCreated (uint _upc) {\r\n        require (parts[_upc].state == State.Created || parts[_upc].state == State.ShippedToDepot, \"Error, the part doesn't exist!\");\r\n        _;\r\n    }\r\n\r\n    modifier isInField (uint _upc) {\r\n        require (parts[_upc].state == State.ShippedToField, \"Error, the part hasn't reached the field yet!\");\r\n        _;\r\n    }\r\n\r\n    modifier checkDepotManager(address _manager) {\r\n        require(isManagerDepot(_manager), \"Error, this address doesn't belong to a Depot Manager\");\r\n        _;\r\n    }\r\n\r\n    modifier checkDepotOperator(address _operator) {\r\n        require(isOperator(_operator), \"Error, this address doesn't belong to an Operator\");\r\n        _;\r\n    }\r\n\r\n    modifier isDepotCreated(uint depotId) {\r\n        require(depots[depotId].isDCreated, \"Error, there is no Depot with that Id in our network\");\r\n        _;\r\n    }\r\n\r\n    modifier isPartRequested(uint _upc) {\r\n        require(printers[_upc].pStage == PrinterStage.WaitingApproval, \"Error, part is not requested or is alrready approved\");\r\n        _;  \r\n    }\r\n\r\n    modifier isPartApproved(uint _upc) {\r\n        require(printers[_upc].pStage == PrinterStage.Approved, \"Error, part is not approved for production\");\r\n        _;\r\n    }\r\n\r\n    modifier partNotRequested(uint _upc) {\r\n        require(printers[_upc].pStage == PrinterStage.NotRequested, \"Part already requested\");\r\n        _;\r\n    }\r\n    \r\n\r\n    modifier partNotCreated(uint _upc) {\r\n        require(parts[_upc].id == 0, \"Part is already created\");\r\n        _;\r\n    }\r\n    \r\n    modifier checkAddress(address account) {\r\n        require(addressInUse[account] == false, \"Error, address already in use\");\r\n        _;\r\n    }\r\n\r\n    modifier checkArmyAccess() {\r\n        require(isOwner() || isManagerDepot(msg.sender) || isManagerField(msg.sender) || isOperator(msg.sender), \"Only army participants are authorised to make this action\");\r\n        _;\r\n    }\r\n    \r\n    constructor() {\r\n        owner = msg.sender;\r\n        stock=1;\r\n        upc=1;\r\n    }\r\n\r\n    // function kill() public {\r\n    //     if(msg.sender == owner) {\r\n    //         address payable ownerAddress = payable(address(owner));\r\n    //         selfdestruct(ownerAddress);\r\n    //     }\r\n    // }\r\n    /*\r\n        Add Operators, Depot Managers, Field Managers\r\n        Allowed: Only contract owner\r\n    */\r\n    function addOperator(address account) public allowOnlyOwner() checkAddress(account){\r\n        addOperatorInternal(account);\r\n        addressInUse[account] = true;\r\n    }\r\n   \r\n    function addManagerDepot(address account) public allowOnlyOwner() checkAddress(account){\r\n        addManagerDepotInternal(account);\r\n        addressInUse[account] = true;\r\n    }\r\n    \r\n    function addManagerField(address account) public allowOnlyOwner() checkAddress(account){\r\n        addManagerFieldInternal(account);\r\n        addressInUse[account] = true;\r\n\r\n    }\r\n\r\n    function removeManagerDepot() public onlyManagerDepot() {\r\n        removeManagerDepotInternal(msg.sender);\r\n        addressInUse[msg.sender] = false;\r\n    }\r\n\r\n    function removeManagerField() public onlyManagerField() {\r\n        removeManagerFieldInternal(msg.sender);\r\n        addressInUse[msg.sender] = false;\r\n\r\n    }\r\n\r\n    function removeOperator() public onlyOperator() {\r\n        removeOperatorInternal(msg.sender);\r\n        addressInUse[msg.sender] = false;\r\n\r\n    }\r\n    \r\n    /*\r\n        Create the Depots of the SC and add the Operators, Managers\r\n        Allowed: Only contract owner\r\n    */\r\n    function addDepot(uint _depotId, address _operator, address _manager) public allowOnlyOwner() checkDepotManager(_manager) checkDepotOperator(_operator) {\r\n        require(isAvailableOperator(_operator), \"Operator N/A\");\r\n        require(isAvailableManagerDepot(_manager), \"Operator N/A\");\r\n        require(depots[_depotId].isDCreated == false, \"Depot already created\");\r\n        \r\n\r\n        addDepotInternal(_depotId, _operator, _manager);\r\n    }   \r\n\r\n    function addDepotInternal(uint _depotId, address _operator, address _manager) internal {\r\n        Depot memory depot;\r\n        depot.depotId = _depotId;\r\n        depot.depotOperator = _operator;\r\n        depot.depotManager = _manager;\r\n        //depot.depotPrinter = _printer;\r\n        depot.isDCreated = true;\r\n        depots[_depotId] = depot;\r\n        \r\n        makeUnavailableOperator(_operator);\r\n        makeUnavailableManagerDepot(_manager);\r\n        emit DepotCreated(_depotId);\r\n\r\n    }\r\n\r\n    function deleteDepot(uint _depotId) public onlyManagerDepot() isDepotCreated(_depotId) {\r\n        makeAvailableOperator(depots[_depotId].depotOperator);\r\n        makeAvailableManagerDepot(depots[_depotId].depotManager);\r\n        delete depots[_depotId];\r\n\r\n        emit DepotDeleted(_depotId);\r\n    }\r\n    /*\r\n        0:  Depot Manager Send the Request for part manufacture\r\n            Allowed only Depot Manager\r\n    */\r\n\r\n    function requestPart(uint _upc, uint _layer_thickness, string memory _fill_pattern, string memory _orientation, bytes32 _stl, bytes32 _cad, int _temp) public onlyManagerDepot() partNotRequested(_upc) {\r\n        //  Have maybe an already defined list of CAD and STL hashed files and use this function \r\n        //   to look it up? Or maybe is unnecessary\r\n        \r\n        Printer memory printer;  //= new Printer(_layer_thickness,_fill_pattern, _orientation, _stl, _cad, _temp);\r\n        printer.layer_thickness = _layer_thickness;\r\n        printer.fill_pattern = _fill_pattern;\r\n        printer.orientation = _orientation;\r\n        printer.stl = _stl;\r\n        printer.cad = _cad;\r\n        printer.temp = _temp;\r\n        printer.pStage = PrinterStage.WaitingApproval;\r\n        printer.printerId = keccak256(abi.encodePacked(_layer_thickness, _fill_pattern, _orientation, _stl, _cad, _temp));\r\n\r\n        printers[_upc] = printer;\r\n       // orders[_upc] = PrinterStage.WaitingApproval;\r\n       emit RequestedPart(_upc);\r\n    }\r\n\r\n    function approvePart(uint _upc) public onlyOperator() isPartRequested(_upc) {\r\n        //orders[_upc] = PrinterStage.Approved;\r\n        printers[_upc].pStage = PrinterStage.Approved;\r\n        emit ApprovedPart(_upc);\r\n\r\n    }\r\n\r\n    function discardPart(uint _upc) public onlyOperator() isPartRequested(_upc) {\r\n        //delete orders[_upc] ;\r\n        delete printers[_upc];\r\n        emit DiscardedPart(_upc);\r\n\r\n    }\r\n    \r\n    \r\n\r\n\r\n    /*  \r\n        1: Operator creates spare part\r\n        Allowed: Only operator   \r\n    */\r\n    function createdPart(uint _upc, int _lon, int _lat, uint _depot) public onlyOperator() isDepotCreated(_depot) isPartApproved(_upc) partNotCreated(_upc){\r\n       \r\n        /*\r\n        Here the part is created and the following values are passed (according to Part smart contract constructor)  \r\n        ->  The deployed feature is automatically set to false\r\n        ->  The msg.sender specifies the address of the manager owner that will own the created part (which has to be an operator);\r\n        ->  The state of the part is set to CREATED\r\n        ->  The timestamp of the part is updated\r\n        ->  The action is pushed in the history list of the part to record its movement\r\n                            ? The operator must approve or discard the part ?\r\n        */\r\n        \r\n         /* Create the part and add all the attributes */\r\n        Part memory part;\r\n        part.id = _upc + stock;   \r\n        part.stock = stock;                          // product Id unique. Combines the upc added by the printer/operator and the current stock number\r\n        part.state = State.Created;\r\n        part.partOperator = depots[_depot].depotOperator;                         // product state in the Supply Chain\r\n        part.partOwner = depots[_depot].depotManager;       // product owner through its movement\r\n        part.lat = _lat;                                    // product latitude when created\r\n        part.lon = _lon;                                    // product longitude when created\r\n        part.timestamp = block.timestamp;                   // product timestamp when created\r\n        part.deployed = false;                              // product deployment status\r\n        part.printerId = printers[_upc].printerId;                        // printer's id that created this product\r\n        part.creationDepotId = _depot;\r\n\r\n        /* Add the part to an array of tracking parts */\r\n        parts[_upc] = part;\r\n        \r\n        /* Create the part's history block to be added */\r\n        uint temp;\r\n        TxBlock memory txBlock;\r\n        txBlock.CR = block.number;\r\n        txBlock.DTD = temp;\r\n        txBlock.DTF = temp;\r\n        partsHistory[_upc] = txBlock;\r\n\r\n        stock = stock + 1;                      // update stock number\r\n\r\n        emit Created(_upc);                 // emit event\r\n    }\r\n\r\n    /*  \r\n        2: Part is shipped to a different Depot    \r\n        Allowed: Only depot manager   \r\n    */\r\n    function shipPartToDepot(uint _upc, address _depotManager) public onlyManagerDepot() isCreated(_upc) verifyCaller(parts[_upc].partOwner) {\r\n        require(isManagerDepot(_depotManager), \"Wrong address of Depot Manager\");\r\n        require(!parts[_upc].deployed, \"The part is already deployed\");\r\n        require(parts[_upc].partOwner != _depotManager, \"The part is already in this depot\");\r\n        /*\r\n        Here the part is moved from the creation Depot to another Depot. The ownership of each part goes to the depot manager.\r\n        1. Update the part's state to SHIPPED\r\n        2. Change the ownership of the part to the manager of the new depot \r\n        */\r\n        \r\n        parts[_upc].state = State.ShippedToDepot;\r\n        parts[_upc].partOwner = _depotManager;\r\n        partsHistory[_upc].DTD = block.number;\r\n        emit ShippedToDepot(_upc);\r\n    }\r\n\r\n    /* \r\n        3: Part is shipped to the Field    \r\n        Allowed: Only depot manager\r\n    */\r\n    function shipPartToField(uint _upc, address _fieldManager) public onlyManagerDepot() isCreated(_upc) verifyCaller(parts[_upc].partOwner) {\r\n        require(isManagerField(_fieldManager), \"Wrong address for Field Manager\");\r\n        require(!parts[_upc].deployed, \"The part is already deployed\");\r\n        require(parts[_upc].partOwner != _fieldManager, \"The part is already in this field\");\r\n\r\n\r\n        /*\r\n        Here the part is moved from a Depot to the field. The ownership of each part goes to the field manager.\r\n        1. Update the part's state to SHIPPED\r\n        2. Change the ownership of the part to the field manager ?\r\n        */\r\n\r\n        parts[_upc].state = State.ShippedToField;\r\n        parts[_upc].partOwner = _fieldManager;\r\n        partsHistory[_upc].DTF = block.number;\r\n\r\n        emit ShippedToField(_upc);\r\n    }\r\n\r\n    /* \r\n        4: Part is deployed\r\n        Allowed: Only Field Manager\r\n    */\r\n    function deployPart(uint _upc) public  onlyManagerField() isInField(_upc) verifyCaller(parts[_upc].partOwner) {\r\n        /*\r\n        Here the part is deployed on the field equipment\r\n        1.Update the part's state to deployed\r\n        */\r\n\r\n        parts[_upc].state = State.Deployed;\r\n        parts[_upc].deployed = true;\r\n        emit Deployed(_upc);\r\n    }\r\n\r\n    /*\r\n        Added Functions to get data\r\n    */\r\n\r\n    function getPart(uint _upc) public checkArmyAccess() view returns (uint id, uint _stock, bytes32 printerId, address partOwner,address partOperator, uint creationDepotId, State state, int lon, int lat, uint timestamp, bool deployed) {\r\n        Part memory part = parts[_upc];\r\n        return (\r\n            part.id,\r\n            part.stock,\r\n            part.printerId,\r\n            part.partOwner,\r\n            part.partOperator,\r\n            part.creationDepotId,\r\n            part.state,\r\n            part.lon,\r\n            part.lat,\r\n            part.timestamp,\r\n            part.deployed\r\n        );\r\n    }\r\n\r\n    function getDepot(uint _depotId) public checkArmyAccess() view returns (address depotOperator, address depotManager, bool isDCreated) {\r\n        Depot memory depot = depots[_depotId];\r\n        return (\r\n            depot.depotOperator,\r\n            depot.depotManager,\r\n            depot.isDCreated\r\n            //depot.depotPrinter\r\n        );\r\n    }\r\n\r\n    function getPartHistory(uint _upc) public checkArmyAccess() view returns (uint creation, uint dtd, uint dtf) {\r\n        TxBlock memory txBlock = partsHistory[_upc];\r\n        return (txBlock.CR, txBlock.DTD, txBlock.DTF);\r\n    }\r\n\r\n    function getSpecs(uint _upc) public checkArmyAccess() view returns(bytes32 printerId, uint _layer_thickness, string memory _fill_pattern, string memory _orientation, bytes32 _stl, bytes32 _cad, int _temp, PrinterStage pStage){\r\n        Printer  memory printer = printers[_upc];\r\n        return (\r\n            printer.printerId,\r\n            printer.layer_thickness,\r\n            printer.fill_pattern,\r\n            printer.orientation,\r\n            printer.stl,\r\n            printer.cad,\r\n            printer.temp,\r\n            printer.pStage\r\n        );\r\n    }\r\n}",
  "sourcePath": "C:\\Users\\teode\\Desktop\\21.22project\\Documents\\Code\\firstProject\\contracts\\SupplyChain.sol",
  "compiler": {
    "name": "solc",
    "version": "0.8.11+commit.d7f03943.Emscripten.clang"
  },
  "schemaVersion": "3.4.4",
  "updatedAt": "2022-04-28T18:15:13.962Z",
  "devdoc": {
    "kind": "dev",
    "methods": {},
    "version": 1
  },
  "userdoc": {
    "kind": "user",
    "methods": {},
    "version": 1
  }
}